{
  "transactions": [
    {
      "hash": "0x9dfb41806e123ca1d804bc402851c49b7e46d7e279c79bcade19ef8ce5501e9f",
      "transactionType": "CALL",
      "contractName": null,
      "contractAddress": "0x5489a46fe08948c2778b8c7041cf4bf491cf4a44",
      "function": "setTrustedVault(string,address)",
      "arguments": [
        "polygon",
        "0xab0d6c39fe8819557b9869363BE3989605013c9d"
      ],
      "transaction": {
        "from": "0xe1fc045dabb45b78fc2d48d32086e4a0b11ca6ea",
        "to": "0x5489a46fe08948c2778b8c7041cf4bf491cf4a44",
        "gas": "0xf3bc",
        "value": "0x0",
        "input": "0x89407d650000000000000000000000000000000000000000000000000000000000000040000000000000000000000000ab0d6c39fe8819557b9869363be3989605013c9d0000000000000000000000000000000000000000000000000000000000000007706f6c79676f6e00000000000000000000000000000000000000000000000000",
        "nonce": "0x3b5",
        "chainId": "0xaa36a7"
      },
      "additionalContracts": [],
      "isFixedGasLimit": false
    }
  ],
  "receipts": [
    {
      "status": "0x1",
      "cumulativeGasUsed": "0x971e0c",
      "logs": [],
      "logsBloom": "0x00000000000000000000000000000000000000000000000000000000000000000000000000000000000000000000000000000000000000000000000000000000000000000000000000000000000000000000000000000000000000000000000000000000000000000000000000000000000000000000000000000000000000000000000000000000000000000000000000000000000000000000000000000000000000000000000000000000000000000000000000000000000000000000000000000000000000000000000000000000000000000000000000000000000000000000000000000000000000000000000000000000000000000000000000000000",
      "type": "0x2",
      "transactionHash": "0x9dfb41806e123ca1d804bc402851c49b7e46d7e279c79bcade19ef8ce5501e9f",
      "transactionIndex": "0x59",
      "blockHash": "0xfd870282c6ae2a879d16b0e62fde40ecdc2b7281e2a9b4c38303a9351b6c4ff6",
      "blockNumber": "0x9232a7",
      "gasUsed": "0xb076",
      "effectiveGasPrice": "0xf4249",
      "from": "0xe1fc045dabb45b78fc2d48d32086e4a0b11ca6ea",
      "to": "0x5489a46fe08948c2778b8c7041cf4bf491cf4a44",
      "contractAddress": null
    }
  ],
  "libraries": [],
  "pending": [],
  "returns": {},
  "timestamp": 1762541210148,
  "chain": 11155111,
  "commit": "56d1791"
}
