{
  "transactions": [
    {
      "hash": "0x3716f0394dd3008a200acdbb1c25a1e81434a144657b27b8508b16da73e50600",
      "transactionType": "CALL",
      "contractName": null,
      "contractAddress": "0x94769dc866c7641883762ea8df41a6d6a0535d95",
      "function": "setTrustedVault(string,address)",
      "arguments": [
        "ethereum",
        "0x125E6c89745b5d598297A8eBd9b70BC91Bc8a35d"
      ],
      "transaction": {
        "from": "0xe1fc045dabb45b78fc2d48d32086e4a0b11ca6ea",
        "to": "0x94769dc866c7641883762ea8df41a6d6a0535d95",
        "gas": "0x10224",
        "value": "0x0",
        "input": "0x89407d650000000000000000000000000000000000000000000000000000000000000040000000000000000000000000125e6c89745b5d598297a8ebd9b70bc91bc8a35d0000000000000000000000000000000000000000000000000000000000000008657468657265756d000000000000000000000000000000000000000000000000",
        "nonce": "0xae",
        "chainId": "0x13882"
      },
      "additionalContracts": [],
      "isFixedGasLimit": false
    }
  ],
  "receipts": [
    {
      "status": "0x1",
      "cumulativeGasUsed": "0xb082",
      "logs": [
        {
          "address": "0x0000000000000000000000000000000000001010",
          "topics": [
            "0x4dfe1bbbcf077ddc3e01291eea2d5c70c2b422b415d95645b9adcfd678cb1d63",
            "0x0000000000000000000000000000000000000000000000000000000000001010",
            "0x000000000000000000000000e1fc045dabb45b78fc2d48d32086e4a0b11ca6ea",
            "0x0000000000000000000000007ee41d8a25641000661b1ef5e6ae8a00400466b0"
          ],
          "data": "0x000000000000000000000000000000000000000000000000000465e99c16197a0000000000000000000000000000000000000000000000002922478c5565b231000000000000000000000000000000000000000000000b096d70ee96eb94d1a1000000000000000000000000000000000000000000000000291de1a2b94f98b7000000000000000000000000000000000000000000000b096d75548087aaeb1b",
          "blockHash": "0x40476c4e80d46ae5b65814ebf1ba1e6ff0d5eeb881223207ee26e803588c8eae",
          "blockNumber": "0x1b6a326",
          "blockTimestamp": "0x690e645d",
          "transactionHash": "0x3716f0394dd3008a200acdbb1c25a1e81434a144657b27b8508b16da73e50600",
          "transactionIndex": "0x0",
          "logIndex": "0x0",
          "removed": false
        }
      ],
      "logsBloom": "0x00000000000000000000000000000000000000000000000000000000000000000000000000000000000000000000000000008000000000000000000000000000000000000000000000000000000000800000000000000000000100000000000000000000000000000000000000000000000000000000000080000000000000000000000000000000020000000400000000000000000000000000000000000000200000000000000000000000000000000000000000001000000000000000004000000000000000000001040000000000000000400000000000100000000000000000002000000000000000000000000000000000000000000000000000100000",
      "type": "0x2",
      "transactionHash": "0x3716f0394dd3008a200acdbb1c25a1e81434a144657b27b8508b16da73e50600",
      "transactionIndex": "0x0",
      "blockHash": "0x40476c4e80d46ae5b65814ebf1ba1e6ff0d5eeb881223207ee26e803588c8eae",
      "blockNumber": "0x1b6a326",
      "gasUsed": "0xb082",
      "effectiveGasPrice": "0x660fab5bc",
      "from": "0xe1fc045dabb45b78fc2d48d32086e4a0b11ca6ea",
      "to": "0x94769dc866c7641883762ea8df41a6d6a0535d95",
      "contractAddress": null
    }
  ],
  "libraries": [],
  "pending": [],
  "returns": {},
  "timestamp": 1762550878672,
  "chain": 80002,
  "commit": "56d1791"
}
