{
  "transactions": [
    {
      "hash": "0x00c0e4a99834a4189a327340e9f5fc76b28893fafe69f0481a4f1f95a1884245",
      "transactionType": "CALL",
      "contractName": null,
      "contractAddress": "0xab0d6c39fe8819557b9869363be3989605013c9d",
      "function": "setTrustedVault(string,address)",
      "arguments": [
        "ethereum",
        "0x5489A46FE08948c2778b8c7041cF4bf491cf4a44"
      ],
      "transaction": {
        "from": "0xe1fc045dabb45b78fc2d48d32086e4a0b11ca6ea",
        "to": "0xab0d6c39fe8819557b9869363be3989605013c9d",
        "gas": "0x10224",
        "value": "0x0",
        "input": "0x89407d6500000000000000000000000000000000000000000000000000000000000000400000000000000000000000005489a46fe08948c2778b8c7041cf4bf491cf4a440000000000000000000000000000000000000000000000000000000000000008657468657265756d000000000000000000000000000000000000000000000000",
        "nonce": "0xa2",
        "chainId": "0x13882"
      },
      "additionalContracts": [],
      "isFixedGasLimit": false
    }
  ],
  "receipts": [
    {
      "status": "0x1",
      "cumulativeGasUsed": "0xb082",
      "logs": [
        {
          "address": "0x0000000000000000000000000000000000001010",
          "topics": [
            "0x4dfe1bbbcf077ddc3e01291eea2d5c70c2b422b415d95645b9adcfd678cb1d63",
            "0x0000000000000000000000000000000000000000000000000000000000001010",
            "0x000000000000000000000000e1fc045dabb45b78fc2d48d32086e4a0b11ca6ea",
            "0x0000000000000000000000007ee41d8a25641000661b1ef5e6ae8a00400466b0"
          ],
          "data": "0x0000000000000000000000000000000000000000000000000005341fa1d2aa220000000000000000000000000000000000000000000000002e0c34f3daa4fdb7000000000000000000000000000000000000000000000b083fa330f91e255e3e0000000000000000000000000000000000000000000000002e0700d438d25395000000000000000000000000000000000000000000000b083fa86518bff80860",
          "blockHash": "0x9e84ea21f956bf173a63f2f7567800bc3a0501c8dffc7caa1fb3713e26a22fda",
          "blockNumber": "0x1b6904b",
          "blockTimestamp": "0x690e3ea7",
          "transactionHash": "0x00c0e4a99834a4189a327340e9f5fc76b28893fafe69f0481a4f1f95a1884245",
          "transactionIndex": "0x0",
          "logIndex": "0x0",
          "removed": false
        }
      ],
      "logsBloom": "0x00000000000000000000000000000000000000000000000000000000000000000000000000000000000000000000000000008000000000000000000000000000000000000000000000000000000000800000000000000000000100000000000000000000000000000000000000000000000000000000000080000000000000000000000000000000020000000400000000000000000000000000000000000000200000000000000000000000000000000000000000001000000000000000004000000000000000000001040000000000000000400000000000100000000000000000002000000000000000000000000000000000000000000000000000100000",
      "type": "0x2",
      "transactionHash": "0x00c0e4a99834a4189a327340e9f5fc76b28893fafe69f0481a4f1f95a1884245",
      "transactionIndex": "0x0",
      "blockHash": "0x9e84ea21f956bf173a63f2f7567800bc3a0501c8dffc7caa1fb3713e26a22fda",
      "blockNumber": "0x1b6904b",
      "gasUsed": "0xb082",
      "effectiveGasPrice": "0x78c0f4910",
      "from": "0xe1fc045dabb45b78fc2d48d32086e4a0b11ca6ea",
      "to": "0xab0d6c39fe8819557b9869363be3989605013c9d",
      "contractAddress": null
    }
  ],
  "libraries": [],
  "pending": [],
  "returns": {},
  "timestamp": 1762541224241,
  "chain": 80002,
  "commit": "56d1791"
}
