{
  "transactions": [
    {
      "hash": "0xe34b909d2be831006932146731faa725a112c9aff3df0bc29afec64eeb55b36f",
      "transactionType": "CALL",
      "contractName": null,
      "contractAddress": "0x43143f0f8794302f2fc73029572bb0dc256e314c",
      "function": "setTrustedVault(string,address)",
      "arguments": [
        "polygon",
        "0x300588C1EB2A35a4E4111daFc4a05c7B4e838439"
      ],
      "transaction": {
        "from": "0xe1fc045dabb45b78fc2d48d32086e4a0b11ca6ea",
        "to": "0x43143f0f8794302f2fc73029572bb0dc256e314c",
        "gas": "0xf3bc",
        "value": "0x0",
        "input": "0x89407d650000000000000000000000000000000000000000000000000000000000000040000000000000000000000000300588c1eb2a35a4e4111dafc4a05c7b4e8384390000000000000000000000000000000000000000000000000000000000000007706f6c79676f6e00000000000000000000000000000000000000000000000000",
        "nonce": "0x3d2",
        "chainId": "0xaa36a7"
      },
      "additionalContracts": [],
      "isFixedGasLimit": false
    }
  ],
  "receipts": [
    {
      "status": "0x1",
      "cumulativeGasUsed": "0xa00abf",
      "logs": [],
      "logsBloom": "0x00000000000000000000000000000000000000000000000000000000000000000000000000000000000000000000000000000000000000000000000000000000000000000000000000000000000000000000000000000000000000000000000000000000000000000000000000000000000000000000000000000000000000000000000000000000000000000000000000000000000000000000000000000000000000000000000000000000000000000000000000000000000000000000000000000000000000000000000000000000000000000000000000000000000000000000000000000000000000000000000000000000000000000000000000000000",
      "type": "0x2",
      "transactionHash": "0xe34b909d2be831006932146731faa725a112c9aff3df0bc29afec64eeb55b36f",
      "transactionIndex": "0x43",
      "blockHash": "0xa62ab685e574de399788d08e24a2f7a98623b7f5aa504a1c0db50f92f6d74b8a",
      "blockNumber": "0x923714",
      "gasUsed": "0xb076",
      "effectiveGasPrice": "0xf4248",
      "from": "0xe1fc045dabb45b78fc2d48d32086e4a0b11ca6ea",
      "to": "0x43143f0f8794302f2fc73029572bb0dc256e314c",
      "contractAddress": null
    }
  ],
  "libraries": [],
  "pending": [],
  "returns": {},
  "timestamp": 1762555802071,
  "chain": 11155111,
  "commit": "56d1791"
}
