{
  "transactions": [
    {
      "hash": "0xbb40c6bd9ff6fd18ba90a6ba293f3875634cae88aace0f7deca6f51d7f3a47c4",
      "transactionType": "CALL",
      "contractName": null,
      "contractAddress": "0x13ff68c3b5b5cc5a75adca73a7cfb31d85575698",
      "function": "setTrustedVault(string,address)",
      "arguments": [
        "ethereum",
        "0x0fCa84656d0522546303f5338B0fBa62c00A0227"
      ],
      "transaction": {
        "from": "0xe1fc045dabb45b78fc2d48d32086e4a0b11ca6ea",
        "to": "0x13ff68c3b5b5cc5a75adca73a7cfb31d85575698",
        "gas": "0x10224",
        "value": "0x0",
        "input": "0x89407d6500000000000000000000000000000000000000000000000000000000000000400000000000000000000000000fca84656d0522546303f5338b0fba62c00a02270000000000000000000000000000000000000000000000000000000000000008657468657265756d000000000000000000000000000000000000000000000000",
        "nonce": "0xb5",
        "chainId": "0x13882"
      },
      "additionalContracts": [],
      "isFixedGasLimit": false
    }
  ],
  "receipts": [
    {
      "status": "0x1",
      "cumulativeGasUsed": "0x23886",
      "logs": [
        {
          "address": "0x0000000000000000000000000000000000001010",
          "topics": [
            "0x4dfe1bbbcf077ddc3e01291eea2d5c70c2b422b415d95645b9adcfd678cb1d63",
            "0x0000000000000000000000000000000000000000000000000000000000001010",
            "0x000000000000000000000000e1fc045dabb45b78fc2d48d32086e4a0b11ca6ea",
            "0x0000000000000000000000007ee41d8a25641000661b1ef5e6ae8a00400466b0"
          ],
          "data": "0x00000000000000000000000000000000000000000000000000046a26d9aae600000000000000000000000000000000000000000000000000268885455d6b72bb000000000000000000000000000000000000000000000b09bf4d5c5fe265582500000000000000000000000000000000000000000000000026841b1e83c08cbb000000000000000000000000000000000000000000000b09bf51c686bc103e25",
          "blockHash": "0x7c4503a3823981bc7946e54e42e98588e6021e89c1ef801e9376253a34b3ad4a",
          "blockNumber": "0x1b6a9f9",
          "blockTimestamp": "0x690e7203",
          "transactionHash": "0xbb40c6bd9ff6fd18ba90a6ba293f3875634cae88aace0f7deca6f51d7f3a47c4",
          "transactionIndex": "0x1",
          "logIndex": "0x3",
          "removed": false
        }
      ],
      "logsBloom": "0x00000000000000000000000000000000000000000000000000000000000000000000000000000000000000000000000000008000000000000000000000000000000000000000000000000000000000800000000000000000000100000000000000000000000000000000000000000000000000000000000080000000000000000000000000000000020000000400000000000000000000000000000000000000200000000000000000000000000000000000000000001000000000000000004000000000000000000001040000000000000000400000000000100000000000000000002000000000000000000000000000000000000000000000000000100000",
      "type": "0x2",
      "transactionHash": "0xbb40c6bd9ff6fd18ba90a6ba293f3875634cae88aace0f7deca6f51d7f3a47c4",
      "transactionIndex": "0x1",
      "blockHash": "0x7c4503a3823981bc7946e54e42e98588e6021e89c1ef801e9376253a34b3ad4a",
      "blockNumber": "0x1b6a9f9",
      "gasUsed": "0xb082",
      "effectiveGasPrice": "0x66720b33f",
      "from": "0xe1fc045dabb45b78fc2d48d32086e4a0b11ca6ea",
      "to": "0x13ff68c3b5b5cc5a75adca73a7cfb31d85575698",
      "contractAddress": null
    }
  ],
  "libraries": [],
  "pending": [],
  "returns": {},
  "timestamp": 1762554371303,
  "chain": 80002,
  "commit": "56d1791"
}
