{
  "transactions": [
    {
      "hash": "0xd3af1253f3abd71273e2345ab82e2ac211ff42f7d46fb73feec70113306f6c4d",
      "transactionType": "CALL",
      "contractName": null,
      "contractAddress": "0x125e6c89745b5d598297a8ebd9b70bc91bc8a35d",
      "function": "setTrustedVault(string,address)",
      "arguments": [
        "polygon",
        "0x94769dc866c7641883762ea8df41a6d6a0535D95"
      ],
      "transaction": {
        "from": "0xe1fc045dabb45b78fc2d48d32086e4a0b11ca6ea",
        "to": "0x125e6c89745b5d598297a8ebd9b70bc91bc8a35d",
        "gas": "0xf3bc",
        "value": "0x0",
        "input": "0x89407d65000000000000000000000000000000000000000000000000000000000000004000000000000000000000000094769dc866c7641883762ea8df41a6d6a0535d950000000000000000000000000000000000000000000000000000000000000007706f6c79676f6e00000000000000000000000000000000000000000000000000",
        "nonce": "0x3c3",
        "chainId": "0xaa36a7"
      },
      "additionalContracts": [],
      "isFixedGasLimit": false
    }
  ],
  "receipts": [
    {
      "status": "0x1",
      "cumulativeGasUsed": "0x94ccdc",
      "logs": [],
      "logsBloom": "0x00000000000000000000000000000000000000000000000000000000000000000000000000000000000000000000000000000000000000000000000000000000000000000000000000000000000000000000000000000000000000000000000000000000000000000000000000000000000000000000000000000000000000000000000000000000000000000000000000000000000000000000000000000000000000000000000000000000000000000000000000000000000000000000000000000000000000000000000000000000000000000000000000000000000000000000000000000000000000000000000000000000000000000000000000000000",
      "type": "0x2",
      "transactionHash": "0xd3af1253f3abd71273e2345ab82e2ac211ff42f7d46fb73feec70113306f6c4d",
      "transactionIndex": "0x64",
      "blockHash": "0x40cf101ac5a953cc21a258f7996a70123be2a71bd94100311e64e9c38d42b69c",
      "blockNumber": "0x92358b",
      "gasUsed": "0xb076",
      "effectiveGasPrice": "0xf4248",
      "from": "0xe1fc045dabb45b78fc2d48d32086e4a0b11ca6ea",
      "to": "0x125e6c89745b5d598297a8ebd9b70bc91bc8a35d",
      "contractAddress": null
    }
  ],
  "libraries": [],
  "pending": [],
  "returns": {},
  "timestamp": 1762550869417,
  "chain": 11155111,
  "commit": "56d1791"
}
