{
  "transactions": [
    {
      "hash": "0xe3ccd1f7302f801c24db0e82398fcf53d4bc02a65ed37fe0e8c22bbb58641451",
      "transactionType": "CALL",
      "contractName": null,
      "contractAddress": "0x0fca84656d0522546303f5338b0fba62c00a0227",
      "function": "setTrustedVault(string,address)",
      "arguments": [
        "polygon",
        "0x13Ff68C3B5b5CC5a75AdCA73a7CFB31D85575698"
      ],
      "transaction": {
        "from": "0xe1fc045dabb45b78fc2d48d32086e4a0b11ca6ea",
        "to": "0x0fca84656d0522546303f5338b0fba62c00a0227",
        "gas": "0xf3bc",
        "value": "0x0",
        "input": "0x89407d65000000000000000000000000000000000000000000000000000000000000004000000000000000000000000013ff68c3b5b5cc5a75adca73a7cfb31d855756980000000000000000000000000000000000000000000000000000000000000007706f6c79676f6e00000000000000000000000000000000000000000000000000",
        "nonce": "0x3cb",
        "chainId": "0xaa36a7"
      },
      "additionalContracts": [],
      "isFixedGasLimit": false
    }
  ],
  "receipts": [
    {
      "status": "0x1",
      "cumulativeGasUsed": "0x54eaf0",
      "logs": [],
      "logsBloom": "0x00000000000000000000000000000000000000000000000000000000000000000000000000000000000000000000000000000000000000000000000000000000000000000000000000000000000000000000000000000000000000000000000000000000000000000000000000000000000000000000000000000000000000000000000000000000000000000000000000000000000000000000000000000000000000000000000000000000000000000000000000000000000000000000000000000000000000000000000000000000000000000000000000000000000000000000000000000000000000000000000000000000000000000000000000000000",
      "type": "0x2",
      "transactionHash": "0xe3ccd1f7302f801c24db0e82398fcf53d4bc02a65ed37fe0e8c22bbb58641451",
      "transactionIndex": "0x2a",
      "blockHash": "0x16bd8617977e1c97554563f3be5cb34a0649c358b3b8c94c7b7edc6bf06bfb0f",
      "blockNumber": "0x9236a0",
      "gasUsed": "0xb076",
      "effectiveGasPrice": "0xf4248",
      "from": "0xe1fc045dabb45b78fc2d48d32086e4a0b11ca6ea",
      "to": "0x0fca84656d0522546303f5338b0fba62c00a0227",
      "contractAddress": null
    }
  ],
  "libraries": [],
  "pending": [],
  "returns": {},
  "timestamp": 1762554361941,
  "chain": 11155111,
  "commit": "56d1791"
}
