{
  "transactions": [
    {
      "hash": "0xeb980c69f67ed90b99329a398fa91c86882c69f3db6194949de3c19927c72e19",
      "transactionType": "CALL",
      "contractName": null,
      "contractAddress": "0x5820443e51ed666cdfe3d19f293f72cd61829c5d",
      "function": "setTrustedVault(string,address)",
      "arguments": [
        "polygon",
        "0xb0e352b60264C926f7B19F0fC5A1eeE499163c19"
      ],
      "transaction": {
        "from": "0xe1fc045dabb45b78fc2d48d32086e4a0b11ca6ea",
        "to": "0x5820443e51ed666cdfe3d19f293f72cd61829c5d",
        "gas": "0xf417",
        "value": "0x0",
        "input": "0x89407d650000000000000000000000000000000000000000000000000000000000000040000000000000000000000000b0e352b60264c926f7b19f0fc5a1eee499163c190000000000000000000000000000000000000000000000000000000000000007706f6c79676f6e00000000000000000000000000000000000000000000000000",
        "nonce": "0x3e4",
        "chainId": "0xaa36a7"
      },
      "additionalContracts": [],
      "isFixedGasLimit": false
    }
  ],
  "receipts": [
    {
      "status": "0x1",
      "cumulativeGasUsed": "0x3820ce",
      "logs": [],
      "logsBloom": "0x00000000000000000000000000000000000000000000000000000000000000000000000000000000000000000000000000000000000000000000000000000000000000000000000000000000000000000000000000000000000000000000000000000000000000000000000000000000000000000000000000000000000000000000000000000000000000000000000000000000000000000000000000000000000000000000000000000000000000000000000000000000000000000000000000000000000000000000000000000000000000000000000000000000000000000000000000000000000000000000000000000000000000000000000000000000",
      "type": "0x2",
      "transactionHash": "0xeb980c69f67ed90b99329a398fa91c86882c69f3db6194949de3c19927c72e19",
      "transactionIndex": "0x19",
      "blockHash": "0x005969ca116fb5c37c5ea60452e3f56fd51cdd08ce58fcbfa2b03b8310742efe",
      "blockNumber": "0x923933",
      "gasUsed": "0xb0b8",
      "effectiveGasPrice": "0xf4243",
      "from": "0xe1fc045dabb45b78fc2d48d32086e4a0b11ca6ea",
      "to": "0x5820443e51ed666cdfe3d19f293f72cd61829c5d",
      "contractAddress": null
    }
  ],
  "libraries": [],
  "pending": [],
  "returns": {},
  "timestamp": 1762562714918,
  "chain": 11155111,
  "commit": "1cd9cc6"
}
