{
  "transactions": [
    {
      "hash": "0x63e0ed63608fd7d51c0cc1714e2827c2dd2399a2fdbb11e6fbddad9a5e6e09ec",
      "transactionType": "CALL",
      "contractName": null,
      "contractAddress": "0xb0e352b60264c926f7b19f0fc5a1eee499163c19",
      "function": "setTrustedVault(string,address)",
      "arguments": [
        "ethereum",
        "0x5820443E51ED666cDFe3d19f293f72CD61829C5d"
      ],
      "transaction": {
        "from": "0xe1fc045dabb45b78fc2d48d32086e4a0b11ca6ea",
        "to": "0xb0e352b60264c926f7b19f0fc5a1eee499163c19",
        "gas": "0xf428",
        "value": "0x0",
        "input": "0x89407d6500000000000000000000000000000000000000000000000000000000000000400000000000000000000000005820443e51ed666cdfe3d19f293f72cd61829c5d0000000000000000000000000000000000000000000000000000000000000008657468657265756d000000000000000000000000000000000000000000000000",
        "nonce": "0xcc",
        "chainId": "0x13882"
      },
      "additionalContracts": [],
      "isFixedGasLimit": false
    }
  ],
  "receipts": [
    {
      "status": "0x1",
      "cumulativeGasUsed": "0xb0c4",
      "logs": [
        {
          "address": "0x0000000000000000000000000000000000001010",
          "topics": [
            "0x4dfe1bbbcf077ddc3e01291eea2d5c70c2b422b415d95645b9adcfd678cb1d63",
            "0x0000000000000000000000000000000000000000000000000000000000001010",
            "0x000000000000000000000000e1fc045dabb45b78fc2d48d32086e4a0b11ca6ea",
            "0x0000000000000000000000007ee41d8a25641000661b1ef5e6ae8a00400466b0"
          ],
          "data": "0x0000000000000000000000000000000000000000000000000004d2b1918fb0000000000000000000000000000000000000000000000000001f27646ec0e264bc000000000000000000000000000000000000000000000b0a70810ec6b4b7219f0000000000000000000000000000000000000000000000001f2291bd2f52b4bc000000000000000000000000000000000000000000000b0a7085e1784646d19f",
          "blockHash": "0x2c976f7acbff5f62a9128834261b2e3dd196dcc498e83a56807a82817f30f541",
          "blockNumber": "0x1b6ba49",
          "blockTimestamp": "0x690e92a3",
          "transactionHash": "0x63e0ed63608fd7d51c0cc1714e2827c2dd2399a2fdbb11e6fbddad9a5e6e09ec",
          "transactionIndex": "0x0",
          "logIndex": "0x0",
          "removed": false
        }
      ],
      "logsBloom": "0x00000000000000000000000000000000000000000000000000000000000000000000000000000000000000000000000000008000000000000000000000000000000000000000000000000000000000800000000000000000000100000000000000000000000000000000000000000000000000000000000080000000000000000000000000000000020000000400000000000000000000000000000000000000200000000000000000000000000000000000000000001000000000000000004000000000000000000001040000000000000000400000000000100000000000000000002000000000000000000000000000000000000000000000000000100000",
      "type": "0x2",
      "transactionHash": "0x63e0ed63608fd7d51c0cc1714e2827c2dd2399a2fdbb11e6fbddad9a5e6e09ec",
      "transactionIndex": "0x0",
      "blockHash": "0x2c976f7acbff5f62a9128834261b2e3dd196dcc498e83a56807a82817f30f541",
      "blockNumber": "0x1b6ba49",
      "gasUsed": "0xb0c4",
      "effectiveGasPrice": "0x6fc23ac3f",
      "from": "0xe1fc045dabb45b78fc2d48d32086e4a0b11ca6ea",
      "to": "0xb0e352b60264c926f7b19f0fc5a1eee499163c19",
      "contractAddress": null
    }
  ],
  "libraries": [],
  "pending": [],
  "returns": {},
  "timestamp": 1762562724510,
  "chain": 80002,
  "commit": "1cd9cc6"
}
