{
  "transactions": [
    {
      "hash": "0xbbbd8ba53bbd0adac34ead55552d355de063b21bb3a486820014da9b801f0ab2",
      "transactionType": "CALL",
      "contractName": null,
      "contractAddress": "0x300588c1eb2a35a4e4111dafc4a05c7b4e838439",
      "function": "setTrustedVault(string,address)",
      "arguments": [
        "ethereum",
        "0x43143F0F8794302F2FC73029572bb0Dc256e314c"
      ],
      "transaction": {
        "from": "0xe1fc045dabb45b78fc2d48d32086e4a0b11ca6ea",
        "to": "0x300588c1eb2a35a4e4111dafc4a05c7b4e838439",
        "gas": "0x10224",
        "value": "0x0",
        "input": "0x89407d65000000000000000000000000000000000000000000000000000000000000004000000000000000000000000043143f0f8794302f2fc73029572bb0dc256e314c0000000000000000000000000000000000000000000000000000000000000008657468657265756d000000000000000000000000000000000000000000000000",
        "nonce": "0xbc",
        "chainId": "0x13882"
      },
      "additionalContracts": [],
      "isFixedGasLimit": false
    }
  ],
  "receipts": [
    {
      "status": "0x1",
      "cumulativeGasUsed": "0xb082",
      "logs": [
        {
          "address": "0x0000000000000000000000000000000000001010",
          "topics": [
            "0x4dfe1bbbcf077ddc3e01291eea2d5c70c2b422b415d95645b9adcfd678cb1d63",
            "0x0000000000000000000000000000000000000000000000000000000000001010",
            "0x000000000000000000000000e1fc045dabb45b78fc2d48d32086e4a0b11ca6ea",
            "0x0000000000000000000000007ee41d8a25641000661b1ef5e6ae8a00400466b0"
          ],
          "data": "0x00000000000000000000000000000000000000000000000000049e5391c7743c000000000000000000000000000000000000000000000000241bf690872ee742000000000000000000000000000000000000000000000b09df83b1d378cc11420000000000000000000000000000000000000000000000002417583cf5677306000000000000000000000000000000000000000000000b09df8850270a93857e",
          "blockHash": "0xbe97a70bad660db02cf7d2219a8b0dfeee7c6f6ea6ea8efccb42f12fdeb35c1b",
          "blockNumber": "0x1b6accb",
          "blockTimestamp": "0x690e77a7",
          "transactionHash": "0xbbbd8ba53bbd0adac34ead55552d355de063b21bb3a486820014da9b801f0ab2",
          "transactionIndex": "0x0",
          "logIndex": "0x0",
          "removed": false
        }
      ],
      "logsBloom": "0x00000000000000000000000000000000000000000000000000000000000000000000000000000000000000000000000000008000000000000000000000000000000000000000000000000000000000800000000000000000000100000000000000000000000000000000000000000000000000000000000080000000000000000000000000000000020000000400000000000000000000000000000000000000200000000000000000000000000000000000000000001000000000000000004000000000000000000001040000000000000000400000000000100000000000000000002000000000000000000000000000000000000000000000000000100000",
      "type": "0x2",
      "transactionHash": "0xbbbd8ba53bbd0adac34ead55552d355de063b21bb3a486820014da9b801f0ab2",
      "transactionIndex": "0x0",
      "blockHash": "0xbe97a70bad660db02cf7d2219a8b0dfeee7c6f6ea6ea8efccb42f12fdeb35c1b",
      "blockNumber": "0x1b6accb",
      "gasUsed": "0xb082",
      "effectiveGasPrice": "0x6b2ccc2dd",
      "from": "0xe1fc045dabb45b78fc2d48d32086e4a0b11ca6ea",
      "to": "0x300588c1eb2a35a4e4111dafc4a05c7b4e838439",
      "contractAddress": null
    }
  ],
  "libraries": [],
  "pending": [],
  "returns": {},
  "timestamp": 1762555816651,
  "chain": 80002,
  "commit": "56d1791"
}
