{
  "transactions": [
    {
      "hash": "0x377a3dd9642f18ef68548d6496dfc9736f926e20ea4c0ee346ed3199af1022e3",
      "transactionType": "CALL",
      "contractName": null,
      "contractAddress": "0x2cdcfa269775153b63bd7eb8032462fa8f3125a7",
      "function": "setTrustedVault(string,address)",
      "arguments": [
        "ethereum",
        "0xCC8505d5E64A64D2c203AE31a3FA3D6B83A41313"
      ],
      "transaction": {
        "from": "0xe1fc045dabb45b78fc2d48d32086e4a0b11ca6ea",
        "to": "0x2cdcfa269775153b63bd7eb8032462fa8f3125a7",
        "gas": "0xf3ea",
        "value": "0x0",
        "input": "0x89407d650000000000000000000000000000000000000000000000000000000000000040000000000000000000000000cc8505d5e64a64d2c203ae31a3fa3d6b83a413130000000000000000000000000000000000000000000000000000000000000008657468657265756d000000000000000000000000000000000000000000000000",
        "nonce": "0xc3",
        "chainId": "0x13882"
      },
      "additionalContracts": [],
      "isFixedGasLimit": false
    }
  ],
  "receipts": [
    {
      "status": "0x1",
      "cumulativeGasUsed": "0xb098",
      "logs": [
        {
          "address": "0x0000000000000000000000000000000000001010",
          "topics": [
            "0x4dfe1bbbcf077ddc3e01291eea2d5c70c2b422b415d95645b9adcfd678cb1d63",
            "0x0000000000000000000000000000000000000000000000000000000000001010",
            "0x000000000000000000000000e1fc045dabb45b78fc2d48d32086e4a0b11ca6ea",
            "0x0000000000000000000000007ee41d8a25641000661b1ef5e6ae8a00400466b0"
          ],
          "data": "0x0000000000000000000000000000000000000000000000000004374e74005c0000000000000000000000000000000000000000000000000021776ceec67be2e1000000000000000000000000000000000000000000000b09f094d6178210a712000000000000000000000000000000000000000000000000217335a0527b86e1000000000000000000000000000000000000000000000b09f0990d65f6110312",
          "blockHash": "0x033462d3c01c051489f2b3d39578a5b0cfd3ae875b1a265f91b29afb4adada9c",
          "blockNumber": "0x1b6ae5a",
          "blockTimestamp": "0x690e7ac5",
          "transactionHash": "0x377a3dd9642f18ef68548d6496dfc9736f926e20ea4c0ee346ed3199af1022e3",
          "transactionIndex": "0x0",
          "logIndex": "0x0",
          "removed": false
        }
      ],
      "logsBloom": "0x00000000000000000000000000000000000000000000000000000000000000000000000000000000000000000000000000008000000000000000000000000000000000000000000000000000000000800000000000000000000100000000000000000000000000000000000000000000000000000000000080000000000000000000000000000000020000000400000000000000000000000000000000000000200000000000000000000000000000000000000000001000000000000000004000000000000000000001040000000000000000400000000000100000000000000000002000000000000000000000000000000000000000000000000000100000",
      "type": "0x2",
      "transactionHash": "0x377a3dd9642f18ef68548d6496dfc9736f926e20ea4c0ee346ed3199af1022e3",
      "transactionIndex": "0x0",
      "blockHash": "0x033462d3c01c051489f2b3d39578a5b0cfd3ae875b1a265f91b29afb4adada9c",
      "blockNumber": "0x1b6ae5a",
      "gasUsed": "0xb098",
      "effectiveGasPrice": "0x61c9f36bf",
      "from": "0xe1fc045dabb45b78fc2d48d32086e4a0b11ca6ea",
      "to": "0x2cdcfa269775153b63bd7eb8032462fa8f3125a7",
      "contractAddress": null
    }
  ],
  "libraries": [],
  "pending": [],
  "returns": {},
  "timestamp": 1762556614756,
  "chain": 80002,
  "commit": "56d1791"
}
