{
  "transactions": [
    {
      "hash": "0x1e4e3f83a203da853bd3edfe2433ccd021373f978096457b0a0553b0dd493e87",
      "transactionType": "CALL",
      "contractName": null,
      "contractAddress": "0xcc8505d5e64a64d2c203ae31a3fa3d6b83a41313",
      "function": "setTrustedVault(string,address)",
      "arguments": [
        "polygon",
        "0x2cdcfa269775153B63bD7eB8032462Fa8F3125A7"
      ],
      "transaction": {
        "from": "0xe1fc045dabb45b78fc2d48d32086e4a0b11ca6ea",
        "to": "0xcc8505d5e64a64d2c203ae31a3fa3d6b83a41313",
        "gas": "0xf3da",
        "value": "0x0",
        "input": "0x89407d6500000000000000000000000000000000000000000000000000000000000000400000000000000000000000002cdcfa269775153b63bd7eb8032462fa8f3125a70000000000000000000000000000000000000000000000000000000000000007706f6c79676f6e00000000000000000000000000000000000000000000000000",
        "nonce": "0x3da",
        "chainId": "0xaa36a7"
      },
      "additionalContracts": [],
      "isFixedGasLimit": false
    }
  ],
  "receipts": [
    {
      "status": "0x1",
      "cumulativeGasUsed": "0x78e0a7",
      "logs": [],
      "logsBloom": "0x00000000000000000000000000000000000000000000000000000000000000000000000000000000000000000000000000000000000000000000000000000000000000000000000000000000000000000000000000000000000000000000000000000000000000000000000000000000000000000000000000000000000000000000000000000000000000000000000000000000000000000000000000000000000000000000000000000000000000000000000000000000000000000000000000000000000000000000000000000000000000000000000000000000000000000000000000000000000000000000000000000000000000000000000000000000",
      "type": "0x2",
      "transactionHash": "0x1e4e3f83a203da853bd3edfe2433ccd021373f978096457b0a0553b0dd493e87",
      "transactionIndex": "0x1e",
      "blockHash": "0x6f29708ce4a94c13b3c3236c95164a4d84bbcc7489bbf43c34f8267fb11089e5",
      "blockNumber": "0x923755",
      "gasUsed": "0xb08c",
      "effectiveGasPrice": "0x399f67",
      "from": "0xe1fc045dabb45b78fc2d48d32086e4a0b11ca6ea",
      "to": "0xcc8505d5e64a64d2c203ae31a3fa3d6b83a41313",
      "contractAddress": null
    }
  ],
  "libraries": [],
  "pending": [],
  "returns": {},
  "timestamp": 1762556605591,
  "chain": 11155111,
  "commit": "56d1791"
}
