{
  "transactions": [
    {
      "hash": "0x9270436adffc6f0df54ffd1d52bd94f95238421053c688279fec5c47189083c7",
      "transactionType": "CALL",
      "contractName": null,
      "contractAddress": "0x29a63ae20dd743db2baf80240a039a593dd6c3be",
      "function": "setTrustedVault(string,address)",
      "arguments": [
        "ethereum",
        "0x719175Cd948A60540fA9d897543c8Cf51466b78D"
      ],
      "transaction": {
        "from": "0xe1fc045dabb45b78fc2d48d32086e4a0b11ca6ea",
        "to": "0x29a63ae20dd743db2baf80240a039a593dd6c3be",
        "gas": "0x10224",
        "value": "0x0",
        "input": "0x89407d650000000000000000000000000000000000000000000000000000000000000040000000000000000000000000719175cd948a60540fa9d897543c8cf51466b78d0000000000000000000000000000000000000000000000000000000000000008657468657265756d000000000000000000000000000000000000000000000000",
        "nonce": "0xa8",
        "chainId": "0x13882"
      },
      "additionalContracts": [],
      "isFixedGasLimit": false
    }
  ],
  "receipts": [
    {
      "status": "0x1",
      "cumulativeGasUsed": "0xb082",
      "logs": [
        {
          "address": "0x0000000000000000000000000000000000001010",
          "topics": [
            "0x4dfe1bbbcf077ddc3e01291eea2d5c70c2b422b415d95645b9adcfd678cb1d63",
            "0x0000000000000000000000000000000000000000000000000000000000001010",
            "0x000000000000000000000000e1fc045dabb45b78fc2d48d32086e4a0b11ca6ea",
            "0x0000000000000000000000007ee41d8a25641000661b1ef5e6ae8a00400466b0"
          ],
          "data": "0x00000000000000000000000000000000000000000000000000050989d875b7c80000000000000000000000000000000000000000000000002b95c412ae55d396000000000000000000000000000000000000000000000b09171246cc69a91ab00000000000000000000000000000000000000000000000002b90ba88d5e01bce000000000000000000000000000000000000000000000b0917175056421ed278",
          "blockHash": "0x8a4bfac4d1ad612098903abc1df12424a02ab8a9d30e8b49bb9d25dad862401e",
          "blockNumber": "0x1b69e64",
          "blockTimestamp": "0x690e5ad9",
          "transactionHash": "0x9270436adffc6f0df54ffd1d52bd94f95238421053c688279fec5c47189083c7",
          "transactionIndex": "0x0",
          "logIndex": "0x0",
          "removed": false
        }
      ],
      "logsBloom": "0x00000000000000000000000000000000000000000000000000000000000000000000000000000000000000000000000000008000000000000000000000000000000000000000000000000000000000800000000000000000000100000000000000000000000000000000000000000000000000000000000080000000000000000000000000000000020000000400000000000000000000000000000000000000200000000000000000000000000000000000000000001000000000000000004000000000000000000001040000000000000000400000000000100000000000000000002000000000000000000000000000000000000000000000000000100000",
      "type": "0x2",
      "transactionHash": "0x9270436adffc6f0df54ffd1d52bd94f95238421053c688279fec5c47189083c7",
      "transactionIndex": "0x0",
      "blockHash": "0x8a4bfac4d1ad612098903abc1df12424a02ab8a9d30e8b49bb9d25dad862401e",
      "blockNumber": "0x1b69e64",
      "gasUsed": "0xb082",
      "effectiveGasPrice": "0x74e4bc323",
      "from": "0xe1fc045dabb45b78fc2d48d32086e4a0b11ca6ea",
      "to": "0x29a63ae20dd743db2baf80240a039a593dd6c3be",
      "contractAddress": null
    }
  ],
  "libraries": [],
  "pending": [],
  "returns": {},
  "timestamp": 1762548442340,
  "chain": 80002,
  "commit": "56d1791"
}
