{
  "transactions": [
    {
      "hash": "0xe03c14476dc60c33e6ecef372c0d16830daf96938a949d3165694d3346b6d075",
      "transactionType": "CALL",
      "contractName": null,
      "contractAddress": "0x719175cd948a60540fa9d897543c8cf51466b78d",
      "function": "setTrustedVault(string,address)",
      "arguments": [
        "polygon",
        "0x29a63aE20Dd743db2BaF80240a039a593dD6C3be"
      ],
      "transaction": {
        "from": "0xe1fc045dabb45b78fc2d48d32086e4a0b11ca6ea",
        "to": "0x719175cd948a60540fa9d897543c8cf51466b78d",
        "gas": "0xf3bc",
        "value": "0x0",
        "input": "0x89407d65000000000000000000000000000000000000000000000000000000000000004000000000000000000000000029a63ae20dd743db2baf80240a039a593dd6c3be0000000000000000000000000000000000000000000000000000000000000007706f6c79676f6e00000000000000000000000000000000000000000000000000",
        "nonce": "0x3bc",
        "chainId": "0xaa36a7"
      },
      "additionalContracts": [],
      "isFixedGasLimit": false
    }
  ],
  "receipts": [
    {
      "status": "0x1",
      "cumulativeGasUsed": "0x7c5aba",
      "logs": [],
      "logsBloom": "0x00000000000000000000000000000000000000000000000000000000000000000000000000000000000000000000000000000000000000000000000000000000000000000000000000000000000000000000000000000000000000000000000000000000000000000000000000000000000000000000000000000000000000000000000000000000000000000000000000000000000000000000000000000000000000000000000000000000000000000000000000000000000000000000000000000000000000000000000000000000000000000000000000000000000000000000000000000000000000000000000000000000000000000000000000000000",
      "type": "0x2",
      "transactionHash": "0xe03c14476dc60c33e6ecef372c0d16830daf96938a949d3165694d3346b6d075",
      "transactionIndex": "0x2c",
      "blockHash": "0x7da703327fb3423bb0e00d9ac5ed34f49faa3b4deda2ec007e9f0c15d5940a4c",
      "blockNumber": "0x9234cf",
      "gasUsed": "0xb076",
      "effectiveGasPrice": "0xf4248",
      "from": "0xe1fc045dabb45b78fc2d48d32086e4a0b11ca6ea",
      "to": "0x719175cd948a60540fa9d897543c8cf51466b78d",
      "contractAddress": null
    }
  ],
  "libraries": [],
  "pending": [],
  "returns": {},
  "timestamp": 1762548432902,
  "chain": 11155111,
  "commit": "56d1791"
}
