{
  "transactions": [
    {
      "hash": "0xe964726bfe67d412fc9c4532189e2102f30e0295c68691c538bc533b0deb8642",
      "transactionType": "CREATE",
      "contractName": "BridgeManager",
      "contractAddress": "0xbee724e626df69a20573cee9522b7140cc9fe9c5",
      "function": null,
      "arguments": null,
      "transaction": {
        "from": "0xe1fc045dabb45b78fc2d48d32086e4a0b11ca6ea",
        "gas": "0x14eaf6",
        "value": "0x0",
        "input": "0x6080604052348015600e575f5ffd5b506112178061001c5f395ff3fe608060405260043610610084575f3560e01c8063a31e2aa411610057578063a31e2aa41461012e578063a7580c0b1461015b578063b84f5d1e1461017c578063da06ca6d146101d3578063fd45345c146101f2575f5ffd5b806322f2caf1146100885780635c01fd70146100a95780638827ffa5146100de5780638e19da89146100ff575b5f5ffd5b348015610093575f5ffd5b506100a76100a2366004610bfc565b610211565b005b3480156100b4575f5ffd5b506100c86100c3366004610cde565b6103b1565b6040516100d59190610d46565b60405180910390f35b3480156100e9575f5ffd5b506100f2610454565b6040516100d59190610d58565b34801561010a575f5ffd5b5061011e610119366004610cde565b610528565b60405190151581526020016100d5565b348015610139575f5ffd5b5061014d610148366004610dbb565b61053b565b6040516100d5929190610e20565b61016e610169366004610e38565b6106b2565b6040519081526020016100d5565b348015610187575f5ffd5b506101bb610196366004610cde565b80516020818301810180515f825292820191909301209152546001600160a01b031681565b6040516001600160a01b0390911681526020016100d5565b3480156101de575f5ffd5b506100c86101ed366004610ed9565b610898565b3480156101fd575f5ffd5b506100a761020c366004610dbb565b6108bf565b5f816001600160a01b03166309c8086c6040518163ffffffff1660e01b81526004015f60405180830381865afa15801561024d573d5f5f3e3d5ffd5b505050506040513d5f823e601f3d908101601f191682016040526102749190810190610ef0565b90505f6001600160a01b03165f8260405161028f9190610f65565b908152604051908190036020019020546001600160a01b0316146102fa5760405162461bcd60e51b815260206004820152601a60248201527f4164617074657220616c7265616479207265676973746572656400000000000060448201526064015b60405180910390fd5b815f8260405161030a9190610f65565b90815260405190819003602001902080546001600160a01b03929092166001600160a01b03199092169190911790556001805480820182555f919091527fb10e2d527612073b26eecdfd717e6a320cf44b4afac2b0732d9fcbe2b7fa0cf6016103738282610fff565b507fb40573981f6088c2c6d55252227055ccde57ef96fdc623d5665bee381adf6c0981836040516103a59291906110ba565b60405180910390a15050565b8051602081830181018051600282529282019190930120915280546103d590610f7b565b80601f016020809104026020016040519081016040528092919081815260200182805461040190610f7b565b801561044c5780601f106104235761010080835404028352916020019161044c565b820191905f5260205f20905b81548152906001019060200180831161042f57829003601f168201915b505050505081565b60606001805480602002602001604051908101604052809291908181526020015f905b8282101561051f578382905f5260205f2001805461049490610f7b565b80601f01602080910402602001604051908101604052809291908181526020018280546104c090610f7b565b801561050b5780601f106104e25761010080835404028352916020019161050b565b820191905f5260205f20905b8154815290600101906020018083116104ee57829003601f168201915b505050505081526020019060010190610477565b50505050905090565b5f5f61053383610a66565b511192915050565b5f606060028460405161054e9190610f65565b9081526020016040518091039020805461056790610f7b565b80601f016020809104026020016040519081016040528092919081815260200182805461059390610f7b565b80156105de5780601f106105b5576101008083540402835291602001916105de565b820191905f5260205f20905b8154815290600101906020018083116105c157829003601f168201915b5050505050905080515f036105f9576105f684610a66565b90505b80515f0361061c5783604051631a1697b560e01b81526004016102f19190610d46565b5f5f8260405161062c9190610f65565b908152604051908190036020018120546328c78aa960e21b82526001600160a01b03169150819063a31e2aa49061066990889088906004016110e3565b602060405180830381865afa158015610684573d5f5f3e3d5ffd5b505050506040513d601f19601f820116820180604052508101906106a89190611110565b9250509250929050565b5f5f6002866040516106c49190610f65565b908152602001604051809103902080546106dd90610f7b565b80601f016020809104026020016040519081016040528092919081815260200182805461070990610f7b565b80156107545780601f1061072b57610100808354040283529160200191610754565b820191905f5260205f20905b81548152906001019060200180831161073757829003601f168201915b5050505050905080515f036107915761076c86610a66565b905080515f036107915785604051631a1697b560e01b81526004016102f19190610d46565b5f5f826040516107a19190610f65565b908152604051908190036020019020546001600160a01b03169050806107dc57816040516310d7e15960e01b81526004016102f19190610d46565b60405163a7580c0b60e01b81526001600160a01b0382169063a7580c0b903490610810908b908b908b908b90600401611127565b60206040518083038185885af115801561082c573d5f5f3e3d5ffd5b50505050506040513d601f19601f820116820180604052508101906108519190611110565b92507fd3d51d8d82aad02aa7cceffb1e7140cf67f4891170a80f276211216d870e3aa782888560405161088693929190611179565b60405180910390a15050949350505050565b600181815481106108a7575f80fd5b905f5260205f20015f9150905080546103d590610f7b565b5f6001600160a01b03165f826040516108d89190610f65565b908152604051908190036020019020546001600160a01b0316036109375760405162461bcd60e51b81526020600482015260166024820152751059185c1d195c881b9bdd081c9959da5cdd195c995960521b60448201526064016102f1565b5f816040516109469190610f65565b90815260405190819003602001812054638e19da8960e01b82526001600160a01b031690638e19da899061097e908590600401610d46565b602060405180830381865afa158015610999573d5f5f3e3d5ffd5b505050506040513d601f19601f820116820180604052508101906109bd91906111ae565b610a095760405162461bcd60e51b815260206004820152601e60248201527f436861696e206e6f7420737570706f727465642062792061646170746572000060448201526064016102f1565b80600283604051610a1a9190610f65565b90815260200160405180910390209081610a349190610fff565b507f8b15f6699963aee0ea6d4ad0e306e6c306b942d87148b6b571dd7df1b79c583a82826040516103a59291906110e3565b60605f5b600154811015610bd0575f60018281548110610a8857610a886111cd565b905f5260205f20018054610a9b90610f7b565b80601f0160208091040260200160405190810160405280929190818152602001828054610ac790610f7b565b8015610b125780601f10610ae957610100808354040283529160200191610b12565b820191905f5260205f20905b815481529060010190602001808311610af557829003601f168201915b505050505090505f5f82604051610b299190610f65565b908152604051908190036020019020546001600160a01b031690508015801590610bb95750604051638e19da8960e01b81526001600160a01b03821690638e19da8990610b7a908890600401610d46565b602060405180830381865afa158015610b95573d5f5f3e3d5ffd5b505050506040513d601f19601f82011682018060405250810190610bb991906111ae565b15610bc657509392505050565b5050600101610a6a565b505060408051602081019091525f8152919050565b6001600160a01b0381168114610bf9575f5ffd5b50565b5f60208284031215610c0c575f5ffd5b8135610c1781610be5565b9392505050565b634e487b7160e01b5f52604160045260245ffd5b604051601f8201601f1916810167ffffffffffffffff81118282101715610c5b57610c5b610c1e565b604052919050565b5f67ffffffffffffffff821115610c7c57610c7c610c1e565b50601f01601f191660200190565b5f82601f830112610c99575f5ffd5b8135602083015f610cb1610cac84610c63565b610c32565b9050828152858383011115610cc4575f5ffd5b828260208301375f92810160200192909252509392505050565b5f60208284031215610cee575f5ffd5b813567ffffffffffffffff811115610d04575f5ffd5b610d1084828501610c8a565b949350505050565b5f81518084528060208401602086015e5f602082860101526020601f19601f83011685010191505092915050565b602081525f610c176020830184610d18565b5f602082016020835280845180835260408501915060408160051b8601019250602086015f5b82811015610daf57603f19878603018452610d9a858351610d18565b94506020938401939190910190600101610d7e565b50929695505050505050565b5f5f60408385031215610dcc575f5ffd5b823567ffffffffffffffff811115610de2575f5ffd5b610dee85828601610c8a565b925050602083013567ffffffffffffffff811115610e0a575f5ffd5b610e1685828601610c8a565b9150509250929050565b828152604060208201525f610d106040830184610d18565b5f5f5f5f60808587031215610e4b575f5ffd5b843567ffffffffffffffff811115610e61575f5ffd5b610e6d87828801610c8a565b945050602085013567ffffffffffffffff811115610e89575f5ffd5b610e9587828801610c8a565b935050604085013567ffffffffffffffff811115610eb1575f5ffd5b610ebd87828801610c8a565b9250506060850135610ece81610be5565b939692955090935050565b5f60208284031215610ee9575f5ffd5b5035919050565b5f60208284031215610f00575f5ffd5b815167ffffffffffffffff811115610f16575f5ffd5b8201601f81018413610f26575f5ffd5b8051610f34610cac82610c63565b818152856020838501011115610f48575f5ffd5b8160208401602083015e5f91810160200191909152949350505050565b5f82518060208501845e5f920191825250919050565b600181811c90821680610f8f57607f821691505b602082108103610fad57634e487b7160e01b5f52602260045260245ffd5b50919050565b601f821115610ffa57805f5260205f20601f840160051c81016020851015610fd85750805b601f840160051c820191505b81811015610ff7575f8155600101610fe4565b50505b505050565b815167ffffffffffffffff81111561101957611019610c1e565b61102d816110278454610f7b565b84610fb3565b6020601f82116001811461105f575f83156110485750848201515b5f19600385901b1c1916600184901b178455610ff7565b5f84815260208120601f198516915b8281101561108e578785015182556020948501946001909201910161106e565b50848210156110ab57868401515f19600387901b60f8161c191681555b50505050600190811b01905550565b604081525f6110cc6040830185610d18565b905060018060a01b03831660208301529392505050565b604081525f6110f56040830185610d18565b82810360208401526111078185610d18565b95945050505050565b5f60208284031215611120575f5ffd5b5051919050565b608081525f6111396080830187610d18565b828103602084015261114b8187610d18565b9050828103604084015261115f8186610d18565b91505060018060a01b038316606083015295945050505050565b606081525f61118b6060830186610d18565b828103602084015261119d8186610d18565b915050826040830152949350505050565b5f602082840312156111be575f5ffd5b81518015158114610c17575f5ffd5b634e487b7160e01b5f52603260045260245ffdfea264697066735822122025c988f32650c79d23c99ea22083b420585f38fdc8d27f9429d063564df520ce64736f6c634300081e0033",
        "nonce": "0x16",
        "chainId": "0x13882"
      },
      "additionalContracts": [],
      "isFixedGasLimit": false
    },
    {
      "hash": "0x113806048a92b9cc82e9c07e7068bfbeb50ae17e8f2ce3232966a40ed81c46ae",
      "transactionType": "CREATE",
      "contractName": "AxelarAdapter",
      "contractAddress": "0x77570265c0230f1ebd933633545592321038ee31",
      "function": null,
      "arguments": [
        "0xe432150cce91c13a887f7D836923d5597adD8E31",
        "0xbE406F0189A0B4cf3A05C286473D23791Dd44Cc6",
        "[ethereum-sepolia, polygon-sepolia, arbitrum-sepolia]"
      ],
      "transaction": {
        "from": "0xe1fc045dabb45b78fc2d48d32086e4a0b11ca6ea",
        "gas": "0xffa82",
        "value": "0x0",
        "input": "0x60c060405234801561000f575f5ffd5b50604051610e81380380610e8183398101604081905261002e91610142565b6001600160a01b03808416608052821660a0525f5b81518110156100da575f82828151811061005f5761005f610289565b60209081029190910181015182546001810184555f9384529190922001906100879082610321565b5060018083838151811061009d5761009d610289565b60200260200101516040516100b291906103db565b908152604051908190036020019020805491151560ff19909216919091179055600101610043565b505050506103f1565b80516001600160a01b03811681146100f9575f5ffd5b919050565b634e487b7160e01b5f52604160045260245ffd5b604051601f8201601f191681016001600160401b038111828210171561013a5761013a6100fe565b604052919050565b5f5f5f60608486031215610154575f5ffd5b61015d846100e3565b925061016b602085016100e3565b60408501519092506001600160401b03811115610186575f5ffd5b8401601f81018613610196575f5ffd5b80516001600160401b038111156101af576101af6100fe565b8060051b6101bf60208201610112565b918252602081840181019290810190898411156101da575f5ffd5b6020850192505b8383101561027a5782516001600160401b038111156101fe575f5ffd5b8501603f81018b1361020e575f5ffd5b60208101516001600160401b0381111561022a5761022a6100fe565b61023d601f8201601f1916602001610112565b8181526040838301018d1015610251575f5ffd5b8160408401602083015e5f602083830101528085525050506020820191506020830192506101e1565b80955050505050509250925092565b634e487b7160e01b5f52603260045260245ffd5b600181811c908216806102b157607f821691505b6020821081036102cf57634e487b7160e01b5f52602260045260245ffd5b50919050565b601f82111561031c57805f5260205f20601f840160051c810160208510156102fa5750805b601f840160051c820191505b81811015610319575f8155600101610306565b50505b505050565b81516001600160401b0381111561033a5761033a6100fe565b61034e81610348845461029d565b846102d5565b6020601f821160018114610380575f83156103695750848201515b5f19600385901b1c1916600184901b178455610319565b5f84815260208120601f198516915b828110156103af578785015182556020948501946001909201910161038f565b50848210156103cc57868401515f19600387901b60f8161c191681555b50505050600190811b01905550565b5f82518060208501845e5f920191825250919050565b60805160a051610a6261041f5f395f818161014301526103df01525f818160d901526104640152610a625ff3fe608060405260043610610084575f3560e01c80638e19da89116100575780638e19da8914610165578063a31e2aa414610194578063a7580c0b146101c1578063c4bffe2b146101d4578063f3a014a2146101f5575f5ffd5b806309c8086c14610088578063116191b6146100c8578063548d496f146101135780636a22d8cc14610132575b5f5ffd5b348015610093575f5ffd5b5060408051808201909152600681526530bc32b630b960d11b60208201525b6040516100bf919061060e565b60405180910390f35b3480156100d3575f5ffd5b506100fb7f000000000000000000000000000000000000000000000000000000000000000081565b6040516001600160a01b0390911681526020016100bf565b34801561011e575f5ffd5b506100b261012d366004610620565b61022f565b34801561013d575f5ffd5b506100fb7f000000000000000000000000000000000000000000000000000000000000000081565b348015610170575f5ffd5b5061018461017f3660046106dc565b6102d4565b60405190151581526020016100bf565b34801561019f575f5ffd5b506101b36101ae366004610716565b6102fe565b6040519081526020016100bf565b6101b36101cf36600461077b565b610322565b3480156101df575f5ffd5b506101e861050d565b6040516100bf9190610827565b348015610200575f5ffd5b5061018461020f3660046106dc565b805160208183018101805160018252928201919093012091525460ff1681565b5f818154811061023d575f80fd5b905f5260205f20015f9150905080546102559061088a565b80601f01602080910402602001604051908101604052809291908181526020018280546102819061088a565b80156102cc5780601f106102a3576101008083540402835291602001916102cc565b820191905f5260205f20905b8154815290600101906020018083116102af57829003601f168201915b505050505081565b5f6001826040516102e591906108d9565b9081526040519081900360200190205460ff1692915050565b5f8151606461030d91906108f8565b6103199061c35061090f565b90505b92915050565b5f61032c856102d4565b61037c5760405162461bcd60e51b815260206004820152601d60248201527f556e737570706f727465642064657374696e6174696f6e20636861696e000000604482015260640160405180910390fd5b424333856040516020016103939493929190610922565b60408051601f19818403018152919052805160209091012090506001600160a01b0382161580156103c357505f34115b1561044d57604051630c93e3bb60e01b81526001600160a01b037f00000000000000000000000000000000000000000000000000000000000000001690630c93e3bb90349061041e9030908a908a908a90339060040161095b565b5f604051808303818588803b158015610435575f5ffd5b505af1158015610447573d5f5f3e3d5ffd5b50505050505b604051631c92115f60e01b81526001600160a01b037f00000000000000000000000000000000000000000000000000000000000000001690631c92115f9061049d908890889088906004016109bf565b5f604051808303815f87803b1580156104b4575f5ffd5b505af11580156104c6573d5f5f3e3d5ffd5b505050507f562c096a99d210a8b6c421ba9620f25075bb753b6fb03bdea9747f2caa7c1b9b8585836040516104fd939291906109f7565b60405180910390a1949350505050565b60605f805480602002602001604051908101604052809291908181526020015f905b828210156105d7578382905f5260205f2001805461054c9061088a565b80601f01602080910402602001604051908101604052809291908181526020018280546105789061088a565b80156105c35780601f1061059a576101008083540402835291602001916105c3565b820191905f5260205f20905b8154815290600101906020018083116105a657829003601f168201915b50505050508152602001906001019061052f565b50505050905090565b5f81518084528060208401602086015e5f602082860101526020601f19601f83011685010191505092915050565b602081525f61031960208301846105e0565b5f60208284031215610630575f5ffd5b5035919050565b634e487b7160e01b5f52604160045260245ffd5b5f82601f83011261065a575f5ffd5b8135602083015f5f67ffffffffffffffff84111561067a5761067a610637565b50604051601f19601f85018116603f0116810181811067ffffffffffffffff821117156106a9576106a9610637565b6040528381529050808284018710156106c0575f5ffd5b838360208301375f602085830101528094505050505092915050565b5f602082840312156106ec575f5ffd5b813567ffffffffffffffff811115610702575f5ffd5b61070e8482850161064b565b949350505050565b5f5f60408385031215610727575f5ffd5b823567ffffffffffffffff81111561073d575f5ffd5b6107498582860161064b565b925050602083013567ffffffffffffffff811115610765575f5ffd5b6107718582860161064b565b9150509250929050565b5f5f5f5f6080858703121561078e575f5ffd5b843567ffffffffffffffff8111156107a4575f5ffd5b6107b08782880161064b565b945050602085013567ffffffffffffffff8111156107cc575f5ffd5b6107d88782880161064b565b935050604085013567ffffffffffffffff8111156107f4575f5ffd5b6108008782880161064b565b92505060608501356001600160a01b038116811461081c575f5ffd5b939692955090935050565b5f602082016020835280845180835260408501915060408160051b8601019250602086015f5b8281101561087e57603f198786030184526108698583516105e0565b9450602093840193919091019060010161084d565b50929695505050505050565b600181811c9082168061089e57607f821691505b6020821081036108bc57634e487b7160e01b5f52602260045260245ffd5b50919050565b5f81518060208401855e5f93019283525090919050565b5f61031982846108c2565b634e487b7160e01b5f52601160045260245ffd5b808202811582820484141761031c5761031c6108e4565b8082018082111561031c5761031c6108e4565b8481528360208201526bffffffffffffffffffffffff198360601b1660408201525f61095160548301846108c2565b9695505050505050565b6001600160a01b038616815260a0602082018190525f9061097e908301876105e0565b828103604084015261099081876105e0565b905082810360608401526109a481866105e0565b91505060018060a01b03831660808301529695505050505050565b606081525f6109d160608301866105e0565b82810360208401526109e381866105e0565b9050828103604084015261095181856105e0565b606081525f610a0960608301866105e0565b8281036020840152610a1b81866105e0565b91505082604083015294935050505056fea2646970667358221220a2f3df90b839a5bcf6da7ed531d62c1274cf8456480f526f5f83afcac229d18364736f6c634300081e0033000000000000000000000000e432150cce91c13a887f7d836923d5597add8e31000000000000000000000000be406f0189a0b4cf3a05c286473d23791dd44cc600000000000000000000000000000000000000000000000000000000000000600000000000000000000000000000000000000000000000000000000000000003000000000000000000000000000000000000000000000000000000000000006000000000000000000000000000000000000000000000000000000000000000a000000000000000000000000000000000000000000000000000000000000000e00000000000000000000000000000000000000000000000000000000000000010657468657265756d2d7365706f6c696100000000000000000000000000000000000000000000000000000000000000000000000000000000000000000000000f706f6c79676f6e2d7365706f6c696100000000000000000000000000000000000000000000000000000000000000000000000000000000000000000000000010617262697472756d2d7365706f6c696100000000000000000000000000000000",
        "nonce": "0x17",
        "chainId": "0x13882"
      },
      "additionalContracts": [],
      "isFixedGasLimit": false
    },
    {
      "hash": "0xba59fa88343daff6812ef7f81a71f3a6cf449f44cd1c27d149d0fbb735f34fb9",
      "transactionType": "CREATE",
      "contractName": "CCIPAdapter",
      "contractAddress": "0xc4f1d1677df10daee3a6afe8965b02c22566dbc2",
      "function": null,
      "arguments": [
        "0x9C32fCB86BF0f4a1A8921a9Fe46de3198bb884B2",
        "[16015286601757825753, 16281711391670634445, 3478487238524512106]",
        "[ethereum, polygon, arbitrum]"
      ],
      "transaction": {
        "from": "0xe1fc045dabb45b78fc2d48d32086e4a0b11ca6ea",
        "gas": "0x13e11a",
        "value": "0x0",
        "input": "0x60a060405234801561000f575f5ffd5b5060405161121138038061121183398101604081905261002e91610304565b80518251146100775760405162461bcd60e51b81526020600482015260116024820152704d69736d6174636865642061727261797360781b604482015260640160405180910390fd5b6001600160a01b0383166080525f5b82518110156101aa578181815181106100a1576100a16103f1565b60200260200101515f5f8584815181106100bd576100bd6103f1565b60200260200101516001600160401b03166001600160401b031681526020019081526020015f2090816100f09190610489565b50828181518110610103576101036103f1565b6020026020010151600183838151811061011f5761011f6103f1565b60200260200101516040516101349190610543565b90815260200160405180910390205f6101000a8154816001600160401b0302191690836001600160401b031602179055506002828281518110610179576101796103f1565b60209081029190910181015182546001810184555f9384529190922001906101a19082610489565b50600101610086565b50505050610559565b634e487b7160e01b5f52604160045260245ffd5b604051601f8201601f191681016001600160401b03811182821017156101ef576101ef6101b3565b604052919050565b5f6001600160401b0382111561020f5761020f6101b3565b5060051b60200190565b5f82601f830112610228575f5ffd5b815161023b610236826101f7565b6101c7565b8082825260208201915060208360051b86010192508583111561025c575f5ffd5b602085015b838110156102fa5780516001600160401b0381111561027e575f5ffd5b8601603f8101881361028e575f5ffd5b60208101516001600160401b038111156102aa576102aa6101b3565b6102bd601f8201601f19166020016101c7565b8181526040838301018a10156102d1575f5ffd5b8160408401602083015e5f60208383010152808652505050602083019250602081019050610261565b5095945050505050565b5f5f5f60608486031215610316575f5ffd5b83516001600160a01b038116811461032c575f5ffd5b60208501519093506001600160401b03811115610347575f5ffd5b8401601f81018613610357575f5ffd5b8051610365610236826101f7565b8082825260208201915060208360051b850101925088831115610386575f5ffd5b6020840193505b828410156103bc5783516001600160401b03811681146103ab575f5ffd5b82526020938401939091019061038d565b6040880151909550925050506001600160401b038111156103db575f5ffd5b6103e786828701610219565b9150509250925092565b634e487b7160e01b5f52603260045260245ffd5b600181811c9082168061041957607f821691505b60208210810361043757634e487b7160e01b5f52602260045260245ffd5b50919050565b601f82111561048457805f5260205f20601f840160051c810160208510156104625750805b601f840160051c820191505b81811015610481575f815560010161046e565b50505b505050565b81516001600160401b038111156104a2576104a26101b3565b6104b6816104b08454610405565b8461043d565b6020601f8211600181146104e8575f83156104d15750848201515b5f19600385901b1c1916600184901b178455610481565b5f84815260208120601f198516915b8281101561051757878501518255602094850194600190920191016104f7565b508482101561053457868401515f19600387901b60f8161c191681555b50505050600190811b01905550565b5f82518060208501845e5f920191825250919050565b608051610c9261057f5f395f81816101fd015281816103fc01526105470152610c925ff3fe608060405260043610610084575f3560e01c80638e19da89116100575780638e19da891461015c578063a31e2aa41461018b578063a7580c0b146101b8578063c4bffe2b146101cb578063f887ea40146101ec575f5ffd5b806309c8086c14610088578063499038e7146100c657806351a35f5a1461011e578063548d496f1461013d575b5f5ffd5b348015610093575f5ffd5b506040805180820190915260048152630636369760e41b60208201525b6040516100bd919061086f565b60405180910390f35b3480156100d1575f5ffd5b506101066100e036600461092b565b80516020818301810180516001825292820191909301209152546001600160401b031681565b6040516001600160401b0390911681526020016100bd565b348015610129575f5ffd5b506100b0610138366004610964565b610237565b348015610148575f5ffd5b506100b061015736600461098a565b6102ce565b348015610167575f5ffd5b5061017b61017636600461092b565b6102f5565b60405190151581526020016100bd565b348015610196575f5ffd5b506101aa6101a53660046109a1565b610327565b6040519081526020016100bd565b6101aa6101c6366004610a04565b61047e565b3480156101d6575f5ffd5b506101df61061e565b6040516100bd9190610aad565b3480156101f7575f5ffd5b5061021f7f000000000000000000000000000000000000000000000000000000000000000081565b6040516001600160a01b0390911681526020016100bd565b5f602081905290815260409020805461024f90610b10565b80601f016020809104026020016040519081016040528092919081815260200182805461027b90610b10565b80156102c65780601f1061029d576101008083540402835291602001916102c6565b820191905f5260205f20905b8154815290600101906020018083116102a957829003601f168201915b505050505081565b600281815481106102dd575f80fd5b905f5260205f20015f91509050805461024f90610b10565b5f6001826040516103069190610b5f565b908152604051908190036020019020546001600160401b0316151592915050565b5f610331836102f5565b6103825760405162461bcd60e51b815260206004820152601d60248201527f556e737570706f727465642064657374696e6174696f6e20636861696e00000060448201526064015b60405180910390fd5b5f6001846040516103939190610b5f565b90815260405160209181900382018120546001600160401b03169250731111111111111111111111111111111111111111915f916103d5918491889101610b6a565b60408051601f1981840301815290829052630437d33f60e51b825291506001600160a01b037f000000000000000000000000000000000000000000000000000000000000000016906386fa67e0906104339086908590600401610b8d565b602060405180830381865afa15801561044e573d5f5f3e3d5ffd5b505050506040513d601f19601f820116820180604052508101906104729190610bae565b93505050505b92915050565b5f610488856102f5565b6104d45760405162461bcd60e51b815260206004820152601d60248201527f556e737570706f727465642064657374696e6174696f6e20636861696e0000006044820152606401610379565b5f6001866040516104e59190610b5f565b908152604051908190036020019020546001600160401b031690505f61050a866106f2565b90505f8186604051602001610520929190610b6a565b60408051601f1981840301815290829052639abfe5f160e01b825291506001600160a01b037f00000000000000000000000000000000000000000000000000000000000000001690639abfe5f19061057e9086908590600401610b8d565b6020604051808303815f875af115801561059a573d5f5f3e3d5ffd5b505050506040513d601f19601f820116820180604052508101906105be9190610bae565b604080516001600160401b03861681526001600160a01b03851660208201529081018290529094507f056f94739bc66d434ea74eeb7a991ab62efe39c167c4742bcc4d8dd0586260139060600160405180910390a1505050949350505050565b60606002805480602002602001604051908101604052809291908181526020015f905b828210156106e9578382905f5260205f2001805461065e90610b10565b80601f016020809104026020016040519081016040528092919081815260200182805461068a90610b10565b80156106d55780601f106106ac576101008083540402835291602001916106d5565b820191905f5260205f20905b8154815290600101906020018083116106b857829003601f168201915b505050505081526020019060010190610641565b50505050905090565b80515f908290602a146107405760405162461bcd60e51b8152602060048201526016602482015275125b9d985b1a59081859191c995cdcc8199bdc9b585d60521b6044820152606401610379565b5f805b8251811015610839575f83828151811061075f5761075f610bc5565b016020015160f81c90506030811080159061078457506039816001600160a01b031611155b156107b057610794603082610bed565b61079f846010610c0c565b6107a99190610c3d565b9250610830565b6061816001600160a01b0316101580156107d457506066816001600160a01b031611155b156107e457610794605782610bed565b6041816001600160a01b03161015801561080857506046816001600160a01b031611155b1561083057610818603782610bed565b610823846010610c0c565b61082d9190610c3d565b92505b50600101610743565b509392505050565b5f81518084528060208401602086015e5f602082860101526020601f19601f83011685010191505092915050565b602081525f6108816020830184610841565b9392505050565b634e487b7160e01b5f52604160045260245ffd5b5f82601f8301126108ab575f5ffd5b8135602083015f5f6001600160401b038411156108ca576108ca610888565b50604051601f19601f85018116603f011681018181106001600160401b03821117156108f8576108f8610888565b60405283815290508082840187101561090f575f5ffd5b838360208301375f602085830101528094505050505092915050565b5f6020828403121561093b575f5ffd5b81356001600160401b03811115610950575f5ffd5b61095c8482850161089c565b949350505050565b5f60208284031215610974575f5ffd5b81356001600160401b0381168114610881575f5ffd5b5f6020828403121561099a575f5ffd5b5035919050565b5f5f604083850312156109b2575f5ffd5b82356001600160401b038111156109c7575f5ffd5b6109d38582860161089c565b92505060208301356001600160401b038111156109ee575f5ffd5b6109fa8582860161089c565b9150509250929050565b5f5f5f5f60808587031215610a17575f5ffd5b84356001600160401b03811115610a2c575f5ffd5b610a388782880161089c565b94505060208501356001600160401b03811115610a53575f5ffd5b610a5f8782880161089c565b93505060408501356001600160401b03811115610a7a575f5ffd5b610a868782880161089c565b92505060608501356001600160a01b0381168114610aa2575f5ffd5b939692955090935050565b5f602082016020835280845180835260408501915060408160051b8601019250602086015f5b82811015610b0457603f19878603018452610aef858351610841565b94506020938401939190910190600101610ad3565b50929695505050505050565b600181811c90821680610b2457607f821691505b602082108103610b4257634e487b7160e01b5f52602260045260245ffd5b50919050565b5f81518060208401855e5f93019283525090919050565b5f6108818284610b48565b6bffffffffffffffffffffffff198360601b1681525f61095c6014830184610b48565b6001600160401b0383168152604060208201525f61095c6040830184610841565b5f60208284031215610bbe575f5ffd5b5051919050565b634e487b7160e01b5f52603260045260245ffd5b634e487b7160e01b5f52601160045260245ffd5b6001600160a01b03828116828216039081111561047857610478610bd9565b6001600160a01b03818116838216818102909216918183048114821517610c3557610c35610bd9565b505092915050565b6001600160a01b03818116838216019081111561047857610478610bd956fea2646970667358221220ed89f2cac6ea70ef340b2254fdc87d2f101f0ddf4a64abfee6617565c3cc8a4164736f6c634300081e00330000000000000000000000009c32fcb86bf0f4a1a8921a9fe46de3198bb884b2000000000000000000000000000000000000000000000000000000000000006000000000000000000000000000000000000000000000000000000000000000e00000000000000000000000000000000000000000000000000000000000000003000000000000000000000000000000000000000000000000de41ba4fc9d91ad9000000000000000000000000000000000000000000000000e1f4423f1bf587cd000000000000000000000000000000000000000000000000304611b6affba76a0000000000000000000000000000000000000000000000000000000000000003000000000000000000000000000000000000000000000000000000000000006000000000000000000000000000000000000000000000000000000000000000a000000000000000000000000000000000000000000000000000000000000000e00000000000000000000000000000000000000000000000000000000000000008657468657265756d0000000000000000000000000000000000000000000000000000000000000000000000000000000000000000000000000000000000000007706f6c79676f6e000000000000000000000000000000000000000000000000000000000000000000000000000000000000000000000000000000000000000008617262697472756d000000000000000000000000000000000000000000000000",
        "nonce": "0x18",
        "chainId": "0x13882"
      },
      "additionalContracts": [],
      "isFixedGasLimit": false
    },
    {
      "hash": "0x20dde47ccb6c362476c416e8c29a1181b5e5645e293beb1822cf3755817e4b50",
      "transactionType": "CALL",
      "contractName": "BridgeManager",
      "contractAddress": "0xbee724e626df69a20573cee9522b7140cc9fe9c5",
      "function": "registerAdapter(address)",
      "arguments": [
        "0x77570265C0230F1eBD933633545592321038eE31"
      ],
      "transaction": {
        "from": "0xe1fc045dabb45b78fc2d48d32086e4a0b11ca6ea",
        "to": "0xbee724e626df69a20573cee9522b7140cc9fe9c5",
        "gas": "0x1ff52",
        "value": "0x0",
        "input": "0x22f2caf100000000000000000000000077570265c0230f1ebd933633545592321038ee31",
        "nonce": "0x19",
        "chainId": "0x13882"
      },
      "additionalContracts": [],
      "isFixedGasLimit": false
    },
    {
      "hash": "0x8cd5f35d1c0a2b48aa0bd61172cbe8894c0900514760d3e51e65a7fd145613a8",
      "transactionType": "CALL",
      "contractName": "BridgeManager",
      "contractAddress": "0xbee724e626df69a20573cee9522b7140cc9fe9c5",
      "function": "registerAdapter(address)",
      "arguments": [
        "0xc4F1d1677Df10daEE3a6aFe8965B02c22566Dbc2"
      ],
      "transaction": {
        "from": "0xe1fc045dabb45b78fc2d48d32086e4a0b11ca6ea",
        "to": "0xbee724e626df69a20573cee9522b7140cc9fe9c5",
        "gas": "0x1a309",
        "value": "0x0",
        "input": "0x22f2caf1000000000000000000000000c4f1d1677df10daee3a6afe8965b02c22566dbc2",
        "nonce": "0x1a",
        "chainId": "0x13882"
      },
      "additionalContracts": [],
      "isFixedGasLimit": false
    },
    {
      "hash": "0xdb3a94bf073891cd390cc64f139862cd74b0cf967d5e040f929aa1a817cd2ba8",
      "transactionType": "CALL",
      "contractName": "BridgeManager",
      "contractAddress": "0xbee724e626df69a20573cee9522b7140cc9fe9c5",
      "function": "setPreferredProtocol(string,string)",
      "arguments": [
        "ethereum-sepolia",
        "axelar"
      ],
      "transaction": {
        "from": "0xe1fc045dabb45b78fc2d48d32086e4a0b11ca6ea",
        "to": "0xbee724e626df69a20573cee9522b7140cc9fe9c5",
        "gas": "0x13586",
        "value": "0x0",
        "input": "0xfd45345c000000000000000000000000000000000000000000000000000000000000004000000000000000000000000000000000000000000000000000000000000000800000000000000000000000000000000000000000000000000000000000000010657468657265756d2d7365706f6c69610000000000000000000000000000000000000000000000000000000000000000000000000000000000000000000000066178656c61720000000000000000000000000000000000000000000000000000",
        "nonce": "0x1b",
        "chainId": "0x13882"
      },
      "additionalContracts": [],
      "isFixedGasLimit": false
    },
    {
      "hash": "0x7948dddc2c21a47fdf744ab6fcb99d0a87860c7f85247fa4c69faed776315dbd",
      "transactionType": "CALL",
      "contractName": "BridgeManager",
      "contractAddress": "0xbee724e626df69a20573cee9522b7140cc9fe9c5",
      "function": "setPreferredProtocol(string,string)",
      "arguments": [
        "polygon-sepolia",
        "axelar"
      ],
      "transaction": {
        "from": "0xe1fc045dabb45b78fc2d48d32086e4a0b11ca6ea",
        "to": "0xbee724e626df69a20573cee9522b7140cc9fe9c5",
        "gas": "0x13576",
        "value": "0x0",
        "input": "0xfd45345c00000000000000000000000000000000000000000000000000000000000000400000000000000000000000000000000000000000000000000000000000000080000000000000000000000000000000000000000000000000000000000000000f706f6c79676f6e2d7365706f6c6961000000000000000000000000000000000000000000000000000000000000000000000000000000000000000000000000066178656c61720000000000000000000000000000000000000000000000000000",
        "nonce": "0x1c",
        "chainId": "0x13882"
      },
      "additionalContracts": [],
      "isFixedGasLimit": false
    },
    {
      "hash": "0x5214080ca1915c0b185099c415a94e10dbed9feead94dd5ecc58d8f7731208f1",
      "transactionType": "CALL",
      "contractName": "BridgeManager",
      "contractAddress": "0xbee724e626df69a20573cee9522b7140cc9fe9c5",
      "function": "setPreferredProtocol(string,string)",
      "arguments": [
        "arbitrum-sepolia",
        "axelar"
      ],
      "transaction": {
        "from": "0xe1fc045dabb45b78fc2d48d32086e4a0b11ca6ea",
        "to": "0xbee724e626df69a20573cee9522b7140cc9fe9c5",
        "gas": "0x13586",
        "value": "0x0",
        "input": "0xfd45345c000000000000000000000000000000000000000000000000000000000000004000000000000000000000000000000000000000000000000000000000000000800000000000000000000000000000000000000000000000000000000000000010617262697472756d2d7365706f6c69610000000000000000000000000000000000000000000000000000000000000000000000000000000000000000000000066178656c61720000000000000000000000000000000000000000000000000000",
        "nonce": "0x1d",
        "chainId": "0x13882"
      },
      "additionalContracts": [],
      "isFixedGasLimit": false
    }
  ],
  "receipts": [
    {
      "status": "0x1",
      "cumulativeGasUsed": "0x101734",
      "logs": [
        {
          "address": "0x0000000000000000000000000000000000001010",
          "topics": [
            "0x4dfe1bbbcf077ddc3e01291eea2d5c70c2b422b415d95645b9adcfd678cb1d63",
            "0x0000000000000000000000000000000000000000000000000000000000001010",
            "0x000000000000000000000000e1fc045dabb45b78fc2d48d32086e4a0b11ca6ea",
            "0x0000000000000000000000007ee41d8a25641000661b1ef5e6ae8a00400466b0"
          ],
          "data": "0x00000000000000000000000000000000000000000000000000a89673c18c680000000000000000000000000000000000000000000000000087e23f4a977da013000000000000000000000000000000000000000000000a383a67ff68471945870000000000000000000000000000000000000000000000008739a8d6d5f13813000000000000000000000000000000000000000000000a383b1095dc08a5ad87",
          "blockHash": "0x505b09c2ce8eb36a024e83715dc82391adca3ba52e4d35a6db8e8fdd5485f6c6",
          "blockNumber": "0x1b56240",
          "blockTimestamp": "0x690be291",
          "transactionHash": "0xe964726bfe67d412fc9c4532189e2102f30e0295c68691c538bc533b0deb8642",
          "transactionIndex": "0x0",
          "logIndex": "0x0",
          "removed": false
        }
      ],
      "logsBloom": "0x00000000000000000000000000000000000000000000000000000000000000000000000000000000000000000000000000008000000000000000000000000000000000000000000000000000000000800000000000000000000100000000000000000000000000000000000000000000000000000000000080000000000000000000000000000000020000000400000000000000000000000000000000000000200000000000000000000000000000000000000000001000000000000000004000000000000000000001040000000000000000400000000000100000000000000000002000000000000000000000000000000000000000000000000000100000",
      "type": "0x2",
      "transactionHash": "0xe964726bfe67d412fc9c4532189e2102f30e0295c68691c538bc533b0deb8642",
      "transactionIndex": "0x0",
      "blockHash": "0x505b09c2ce8eb36a024e83715dc82391adca3ba52e4d35a6db8e8fdd5485f6c6",
      "blockNumber": "0x1b56240",
      "gasUsed": "0x101734",
      "effectiveGasPrice": "0xa7a35823f",
      "from": "0xe1fc045dabb45b78fc2d48d32086e4a0b11ca6ea",
      "to": null,
      "contractAddress": "0xbee724e626df69a20573cee9522b7140cc9fe9c5"
    },
    {
      "status": "0x1",
      "cumulativeGasUsed": "0x1c61c0",
      "logs": [
        {
          "address": "0x0000000000000000000000000000000000001010",
          "topics": [
            "0x4dfe1bbbcf077ddc3e01291eea2d5c70c2b422b415d95645b9adcfd678cb1d63",
            "0x0000000000000000000000000000000000000000000000000000000000001010",
            "0x000000000000000000000000e1fc045dabb45b78fc2d48d32086e4a0b11ca6ea",
            "0x0000000000000000000000007ee41d8a25641000661b1ef5e6ae8a00400466b0"
          ],
          "data": "0x0000000000000000000000000000000000000000000000000080c79064d718000000000000000000000000000000000000000000000000008739a8d6d1fb8247000000000000000000000000000000000000000000000a383b1095dc08a5ad8700000000000000000000000000000000000000000000000086b8e1466d246a47000000000000000000000000000000000000000000000a383b915d6c6d7cc587",
          "blockHash": "0x505b09c2ce8eb36a024e83715dc82391adca3ba52e4d35a6db8e8fdd5485f6c6",
          "blockNumber": "0x1b56240",
          "blockTimestamp": "0x690be291",
          "transactionHash": "0x113806048a92b9cc82e9c07e7068bfbeb50ae17e8f2ce3232966a40ed81c46ae",
          "transactionIndex": "0x1",
          "logIndex": "0x1",
          "removed": false
        }
      ],
      "logsBloom": "0x00000000000000000000000000000000000000000000000000000000000000000000000000000000000000000000000000008000000000000000000000000000000000000000000000000000000000800000000000000000000100000000000000000000000000000000000000000000000000000000000080000000000000000000000000000000020000000400000000000000000000000000000000000000200000000000000000000000000000000000000000001000000000000000004000000000000000000001040000000000000000400000000000100000000000000000002000000000000000000000000000000000000000000000000000100000",
      "type": "0x2",
      "transactionHash": "0x113806048a92b9cc82e9c07e7068bfbeb50ae17e8f2ce3232966a40ed81c46ae",
      "transactionIndex": "0x1",
      "blockHash": "0x505b09c2ce8eb36a024e83715dc82391adca3ba52e4d35a6db8e8fdd5485f6c6",
      "blockNumber": "0x1b56240",
      "gasUsed": "0xc4a8c",
      "effectiveGasPrice": "0xa7a35823f",
      "from": "0xe1fc045dabb45b78fc2d48d32086e4a0b11ca6ea",
      "to": null,
      "contractAddress": "0x77570265c0230f1ebd933633545592321038ee31"
    },
    {
      "status": "0x1",
      "cumulativeGasUsed": "0x2bac72",
      "logs": [
        {
          "address": "0x0000000000000000000000000000000000001010",
          "topics": [
            "0x4dfe1bbbcf077ddc3e01291eea2d5c70c2b422b415d95645b9adcfd678cb1d63",
            "0x0000000000000000000000000000000000000000000000000000000000001010",
            "0x000000000000000000000000e1fc045dabb45b78fc2d48d32086e4a0b11ca6ea",
            "0x0000000000000000000000007ee41d8a25641000661b1ef5e6ae8a00400466b0"
          ],
          "data": "0x00000000000000000000000000000000000000000000000000a037bf0ec8640000000000000000000000000000000000000000000000000086b8e1466a1e11d3000000000000000000000000000000000000000000000a383b915d6c6d7cc5870000000000000000000000000000000000000000000000008618a9875b55add3000000000000000000000000000000000000000000000a383c31952b7c452987",
          "blockHash": "0x505b09c2ce8eb36a024e83715dc82391adca3ba52e4d35a6db8e8fdd5485f6c6",
          "blockNumber": "0x1b56240",
          "blockTimestamp": "0x690be291",
          "transactionHash": "0xba59fa88343daff6812ef7f81a71f3a6cf449f44cd1c27d149d0fbb735f34fb9",
          "transactionIndex": "0x2",
          "logIndex": "0x2",
          "removed": false
        }
      ],
      "logsBloom": "0x00000000000000000000000000000000000000000000000000000000000000000000000000000000000000000000000000008000000000000000000000000000000000000000000000000000000000800000000000000000000100000000000000000000000000000000000000000000000000000000000080000000000000000000000000000000020000000400000000000000000000000000000000000000200000000000000000000000000000000000000000001000000000000000004000000000000000000001040000000000000000400000000000100000000000000000002000000000000000000000000000000000000000000000000000100000",
      "type": "0x2",
      "transactionHash": "0xba59fa88343daff6812ef7f81a71f3a6cf449f44cd1c27d149d0fbb735f34fb9",
      "transactionIndex": "0x2",
      "blockHash": "0x505b09c2ce8eb36a024e83715dc82391adca3ba52e4d35a6db8e8fdd5485f6c6",
      "blockNumber": "0x1b56240",
      "gasUsed": "0xf4ab2",
      "effectiveGasPrice": "0xa7a35823f",
      "from": "0xe1fc045dabb45b78fc2d48d32086e4a0b11ca6ea",
      "to": null,
      "contractAddress": "0xc4f1d1677df10daee3a6afe8965b02c22566dbc2"
    },
    {
      "status": "0x1",
      "cumulativeGasUsed": "0x2d1ea2",
      "logs": [
        {
          "address": "0xbee724e626df69a20573cee9522b7140cc9fe9c5",
          "topics": [
            "0xb40573981f6088c2c6d55252227055ccde57ef96fdc623d5665bee381adf6c09"
          ],
          "data": "0x000000000000000000000000000000000000000000000000000000000000004000000000000000000000000077570265c0230f1ebd933633545592321038ee3100000000000000000000000000000000000000000000000000000000000000066178656c61720000000000000000000000000000000000000000000000000000",
          "blockHash": "0x505b09c2ce8eb36a024e83715dc82391adca3ba52e4d35a6db8e8fdd5485f6c6",
          "blockNumber": "0x1b56240",
          "blockTimestamp": "0x690be291",
          "transactionHash": "0x20dde47ccb6c362476c416e8c29a1181b5e5645e293beb1822cf3755817e4b50",
          "transactionIndex": "0x3",
          "logIndex": "0x3",
          "removed": false
        },
        {
          "address": "0x0000000000000000000000000000000000001010",
          "topics": [
            "0x4dfe1bbbcf077ddc3e01291eea2d5c70c2b422b415d95645b9adcfd678cb1d63",
            "0x0000000000000000000000000000000000000000000000000000000000001010",
            "0x000000000000000000000000e1fc045dabb45b78fc2d48d32086e4a0b11ca6ea",
            "0x0000000000000000000000007ee41d8a25641000661b1ef5e6ae8a00400466b0"
          ],
          "data": "0x000000000000000000000000000000000000000000000000000f26983fec60000000000000000000000000000000000000000000000000008618a98757924c05000000000000000000000000000000000000000000000a383c31952b7c452987000000000000000000000000000000000000000000000000860982ef17a5ec05000000000000000000000000000000000000000000000a383c40bbc3bc318987",
          "blockHash": "0x505b09c2ce8eb36a024e83715dc82391adca3ba52e4d35a6db8e8fdd5485f6c6",
          "blockNumber": "0x1b56240",
          "blockTimestamp": "0x690be291",
          "transactionHash": "0x20dde47ccb6c362476c416e8c29a1181b5e5645e293beb1822cf3755817e4b50",
          "transactionIndex": "0x3",
          "logIndex": "0x4",
          "removed": false
        }
      ],
      "logsBloom": "0x00000000000000000000000000000000000000000000000000000000000000000000000000000000000000000000000000008000000000000000000000000000200000000000000000000000000000800000000000000800000100000000000000000000000000000000000000000000000000000000000080000000000000080000000000000000020000000400000000800000000000000000000000000000200000000000000000000000004004000000000000001000000000000000004000000000000000000001040000000000000000400000000000100000000000000000002000000000000000000000000000000000000000000000000000100000",
      "type": "0x2",
      "transactionHash": "0x20dde47ccb6c362476c416e8c29a1181b5e5645e293beb1822cf3755817e4b50",
      "transactionIndex": "0x3",
      "blockHash": "0x505b09c2ce8eb36a024e83715dc82391adca3ba52e4d35a6db8e8fdd5485f6c6",
      "blockNumber": "0x1b56240",
      "gasUsed": "0x17230",
      "effectiveGasPrice": "0xa7a35823f",
      "from": "0xe1fc045dabb45b78fc2d48d32086e4a0b11ca6ea",
      "to": "0xbee724e626df69a20573cee9522b7140cc9fe9c5",
      "contractAddress": null
    },
    {
      "status": "0x1",
      "cumulativeGasUsed": "0x2e4e02",
      "logs": [
        {
          "address": "0xbee724e626df69a20573cee9522b7140cc9fe9c5",
          "topics": [
            "0xb40573981f6088c2c6d55252227055ccde57ef96fdc623d5665bee381adf6c09"
          ],
          "data": "0x0000000000000000000000000000000000000000000000000000000000000040000000000000000000000000c4f1d1677df10daee3a6afe8965b02c22566dbc200000000000000000000000000000000000000000000000000000000000000046363697000000000000000000000000000000000000000000000000000000000",
          "blockHash": "0x505b09c2ce8eb36a024e83715dc82391adca3ba52e4d35a6db8e8fdd5485f6c6",
          "blockNumber": "0x1b56240",
          "blockTimestamp": "0x690be291",
          "transactionHash": "0x8cd5f35d1c0a2b48aa0bd61172cbe8894c0900514760d3e51e65a7fd145613a8",
          "transactionIndex": "0x4",
          "logIndex": "0x5",
          "removed": false
        },
        {
          "address": "0x0000000000000000000000000000000000001010",
          "topics": [
            "0x4dfe1bbbcf077ddc3e01291eea2d5c70c2b422b415d95645b9adcfd678cb1d63",
            "0x0000000000000000000000000000000000000000000000000000000000001010",
            "0x000000000000000000000000e1fc045dabb45b78fc2d48d32086e4a0b11ca6ea",
            "0x0000000000000000000000007ee41d8a25641000661b1ef5e6ae8a00400466b0"
          ],
          "data": "0x000000000000000000000000000000000000000000000000000c6a9328eec000000000000000000000000000000000000000000000000000860982ef174ad235000000000000000000000000000000000000000000000a383c40bbc3bc31898700000000000000000000000000000000000000000000000085fd185bee5c1235000000000000000000000000000000000000000000000a383c4d2656e5204987",
          "blockHash": "0x505b09c2ce8eb36a024e83715dc82391adca3ba52e4d35a6db8e8fdd5485f6c6",
          "blockNumber": "0x1b56240",
          "blockTimestamp": "0x690be291",
          "transactionHash": "0x8cd5f35d1c0a2b48aa0bd61172cbe8894c0900514760d3e51e65a7fd145613a8",
          "transactionIndex": "0x4",
          "logIndex": "0x6",
          "removed": false
        }
      ],
      "logsBloom": "0x00000000000000000000000000000000000000000000000000000000000000000000000000000000000000000000000000008000000000000000000000000000200000000000000000000000000000800000000000000800000100000000000000000000000000000000000000000000000000000000000080000000000000080000000000000000020000000400000000800000000000000000000000000000200000000000000000000000004004000000000000001000000000000000004000000000000000000001040000000000000000400000000000100000000000000000002000000000000000000000000000000000000000000000000000100000",
      "type": "0x2",
      "transactionHash": "0x8cd5f35d1c0a2b48aa0bd61172cbe8894c0900514760d3e51e65a7fd145613a8",
      "transactionIndex": "0x4",
      "blockHash": "0x505b09c2ce8eb36a024e83715dc82391adca3ba52e4d35a6db8e8fdd5485f6c6",
      "blockNumber": "0x1b56240",
      "gasUsed": "0x12f60",
      "effectiveGasPrice": "0xa7a35823f",
      "from": "0xe1fc045dabb45b78fc2d48d32086e4a0b11ca6ea",
      "to": "0xbee724e626df69a20573cee9522b7140cc9fe9c5",
      "contractAddress": null
    },
    {
      "status": "0x1",
      "cumulativeGasUsed": "0x2f2e1a",
      "logs": [
        {
          "address": "0xbee724e626df69a20573cee9522b7140cc9fe9c5",
          "topics": [
            "0x8b15f6699963aee0ea6d4ad0e306e6c306b942d87148b6b571dd7df1b79c583a"
          ],
          "data": "0x000000000000000000000000000000000000000000000000000000000000004000000000000000000000000000000000000000000000000000000000000000800000000000000000000000000000000000000000000000000000000000000010657468657265756d2d7365706f6c69610000000000000000000000000000000000000000000000000000000000000000000000000000000000000000000000066178656c61720000000000000000000000000000000000000000000000000000",
          "blockHash": "0x505b09c2ce8eb36a024e83715dc82391adca3ba52e4d35a6db8e8fdd5485f6c6",
          "blockNumber": "0x1b56240",
          "blockTimestamp": "0x690be291",
          "transactionHash": "0xdb3a94bf073891cd390cc64f139862cd74b0cf967d5e040f929aa1a817cd2ba8",
          "transactionIndex": "0x5",
          "logIndex": "0x7",
          "removed": false
        },
        {
          "address": "0x0000000000000000000000000000000000001010",
          "topics": [
            "0x4dfe1bbbcf077ddc3e01291eea2d5c70c2b422b415d95645b9adcfd678cb1d63",
            "0x0000000000000000000000000000000000000000000000000000000000001010",
            "0x000000000000000000000000e1fc045dabb45b78fc2d48d32086e4a0b11ca6ea",
            "0x0000000000000000000000007ee41d8a25641000661b1ef5e6ae8a00400466b0"
          ],
          "data": "0x00000000000000000000000000000000000000000000000000092bea46c4300000000000000000000000000000000000000000000000000085fd185bee116995000000000000000000000000000000000000000000000a383c4d2656e520498700000000000000000000000000000000000000000000000085f3ec71a74d3995000000000000000000000000000000000000000000000a383c5652412be47987",
          "blockHash": "0x505b09c2ce8eb36a024e83715dc82391adca3ba52e4d35a6db8e8fdd5485f6c6",
          "blockNumber": "0x1b56240",
          "blockTimestamp": "0x690be291",
          "transactionHash": "0xdb3a94bf073891cd390cc64f139862cd74b0cf967d5e040f929aa1a817cd2ba8",
          "transactionIndex": "0x5",
          "logIndex": "0x8",
          "removed": false
        }
      ],
      "logsBloom": "0x00000000000000000000000000000000000000000000000000000000000000000000000000000000000000000000000000008000000000000000000000000000200000000000000000000000000000800000000000000800000100000000000000000000000000000010000000000000000000000000000080000000000000080000000000000000020000000400000100000000000000000000000000000000200000000000000000000000000000000000000000001000000000000000004000000000000000000001040000000000000040400000000000100000000000000000002000000000000000000000000000000000000000000000000000100000",
      "type": "0x2",
      "transactionHash": "0xdb3a94bf073891cd390cc64f139862cd74b0cf967d5e040f929aa1a817cd2ba8",
      "transactionIndex": "0x5",
      "blockHash": "0x505b09c2ce8eb36a024e83715dc82391adca3ba52e4d35a6db8e8fdd5485f6c6",
      "blockNumber": "0x1b56240",
      "gasUsed": "0xe018",
      "effectiveGasPrice": "0xa7a35823f",
      "from": "0xe1fc045dabb45b78fc2d48d32086e4a0b11ca6ea",
      "to": "0xbee724e626df69a20573cee9522b7140cc9fe9c5",
      "contractAddress": null
    },
    {
      "status": "0x1",
      "cumulativeGasUsed": "0x300e26",
      "logs": [
        {
          "address": "0xbee724e626df69a20573cee9522b7140cc9fe9c5",
          "topics": [
            "0x8b15f6699963aee0ea6d4ad0e306e6c306b942d87148b6b571dd7df1b79c583a"
          ],
          "data": "0x00000000000000000000000000000000000000000000000000000000000000400000000000000000000000000000000000000000000000000000000000000080000000000000000000000000000000000000000000000000000000000000000f706f6c79676f6e2d7365706f6c6961000000000000000000000000000000000000000000000000000000000000000000000000000000000000000000000000066178656c61720000000000000000000000000000000000000000000000000000",
          "blockHash": "0x505b09c2ce8eb36a024e83715dc82391adca3ba52e4d35a6db8e8fdd5485f6c6",
          "blockNumber": "0x1b56240",
          "blockTimestamp": "0x690be291",
          "transactionHash": "0x7948dddc2c21a47fdf744ab6fcb99d0a87860c7f85247fa4c69faed776315dbd",
          "transactionIndex": "0x6",
          "logIndex": "0x9",
          "removed": false
        },
        {
          "address": "0x0000000000000000000000000000000000001010",
          "topics": [
            "0x4dfe1bbbcf077ddc3e01291eea2d5c70c2b422b415d95645b9adcfd678cb1d63",
            "0x0000000000000000000000000000000000000000000000000000000000001010",
            "0x000000000000000000000000e1fc045dabb45b78fc2d48d32086e4a0b11ca6ea",
            "0x0000000000000000000000007ee41d8a25641000661b1ef5e6ae8a00400466b0"
          ],
          "data": "0x00000000000000000000000000000000000000000000000000092b6c8c42180000000000000000000000000000000000000000000000000085f3ec71a71613ad000000000000000000000000000000000000000000000a383c5652412be4798700000000000000000000000000000000000000000000000085eac1051ad3fbad000000000000000000000000000000000000000000000a383c5f7dadb8269187",
          "blockHash": "0x505b09c2ce8eb36a024e83715dc82391adca3ba52e4d35a6db8e8fdd5485f6c6",
          "blockNumber": "0x1b56240",
          "blockTimestamp": "0x690be291",
          "transactionHash": "0x7948dddc2c21a47fdf744ab6fcb99d0a87860c7f85247fa4c69faed776315dbd",
          "transactionIndex": "0x6",
          "logIndex": "0xa",
          "removed": false
        }
      ],
      "logsBloom": "0x00000000000000000000000000000000000000000000000000000000000000000000000000000000000000000000000000008000000000000000000000000000200000000000000000000000000000800000000000000800000100000000000000000000000000000010000000000000000000000000000080000000000000080000000000000000020000000400000100000000000000000000000000000000200000000000000000000000000000000000000000001000000000000000004000000000000000000001040000000000000040400000000000100000000000000000002000000000000000000000000000000000000000000000000000100000",
      "type": "0x2",
      "transactionHash": "0x7948dddc2c21a47fdf744ab6fcb99d0a87860c7f85247fa4c69faed776315dbd",
      "transactionIndex": "0x6",
      "blockHash": "0x505b09c2ce8eb36a024e83715dc82391adca3ba52e4d35a6db8e8fdd5485f6c6",
      "blockNumber": "0x1b56240",
      "gasUsed": "0xe00c",
      "effectiveGasPrice": "0xa7a35823f",
      "from": "0xe1fc045dabb45b78fc2d48d32086e4a0b11ca6ea",
      "to": "0xbee724e626df69a20573cee9522b7140cc9fe9c5",
      "contractAddress": null
    },
    {
      "status": "0x1",
      "cumulativeGasUsed": "0x30ee3e",
      "logs": [
        {
          "address": "0xbee724e626df69a20573cee9522b7140cc9fe9c5",
          "topics": [
            "0x8b15f6699963aee0ea6d4ad0e306e6c306b942d87148b6b571dd7df1b79c583a"
          ],
          "data": "0x000000000000000000000000000000000000000000000000000000000000004000000000000000000000000000000000000000000000000000000000000000800000000000000000000000000000000000000000000000000000000000000010617262697472756d2d7365706f6c69610000000000000000000000000000000000000000000000000000000000000000000000000000000000000000000000066178656c61720000000000000000000000000000000000000000000000000000",
          "blockHash": "0x505b09c2ce8eb36a024e83715dc82391adca3ba52e4d35a6db8e8fdd5485f6c6",
          "blockNumber": "0x1b56240",
          "blockTimestamp": "0x690be291",
          "transactionHash": "0x5214080ca1915c0b185099c415a94e10dbed9feead94dd5ecc58d8f7731208f1",
          "transactionIndex": "0x7",
          "logIndex": "0xb",
          "removed": false
        },
        {
          "address": "0x0000000000000000000000000000000000001010",
          "topics": [
            "0x4dfe1bbbcf077ddc3e01291eea2d5c70c2b422b415d95645b9adcfd678cb1d63",
            "0x0000000000000000000000000000000000000000000000000000000000001010",
            "0x000000000000000000000000e1fc045dabb45b78fc2d48d32086e4a0b11ca6ea",
            "0x0000000000000000000000007ee41d8a25641000661b1ef5e6ae8a00400466b0"
          ],
          "data": "0x00000000000000000000000000000000000000000000000000092bea46c4300000000000000000000000000000000000000000000000000085eac1051a9cd8b9000000000000000000000000000000000000000000000a383c5f7dadb826918700000000000000000000000000000000000000000000000085e1951ad3d8a8b9000000000000000000000000000000000000000000000a383c68a997feeac187",
          "blockHash": "0x505b09c2ce8eb36a024e83715dc82391adca3ba52e4d35a6db8e8fdd5485f6c6",
          "blockNumber": "0x1b56240",
          "blockTimestamp": "0x690be291",
          "transactionHash": "0x5214080ca1915c0b185099c415a94e10dbed9feead94dd5ecc58d8f7731208f1",
          "transactionIndex": "0x7",
          "logIndex": "0xc",
          "removed": false
        }
      ],
      "logsBloom": "0x00000000000000000000000000000000000000000000000000000000000000000000000000000000000000000000000000008000000000000000000000000000200000000000000000000000000000800000000000000800000100000000000000000000000000000010000000000000000000000000000080000000000000080000000000000000020000000400000100000000000000000000000000000000200000000000000000000000000000000000000000001000000000000000004000000000000000000001040000000000000040400000000000100000000000000000002000000000000000000000000000000000000000000000000000100000",
      "type": "0x2",
      "transactionHash": "0x5214080ca1915c0b185099c415a94e10dbed9feead94dd5ecc58d8f7731208f1",
      "transactionIndex": "0x7",
      "blockHash": "0x505b09c2ce8eb36a024e83715dc82391adca3ba52e4d35a6db8e8fdd5485f6c6",
      "blockNumber": "0x1b56240",
      "gasUsed": "0xe018",
      "effectiveGasPrice": "0xa7a35823f",
      "from": "0xe1fc045dabb45b78fc2d48d32086e4a0b11ca6ea",
      "to": "0xbee724e626df69a20573cee9522b7140cc9fe9c5",
      "contractAddress": null
    }
  ],
  "libraries": [],
  "pending": [],
  "returns": {
    "0": {
      "internal_type": "struct DeployBridgeV2.DeploymentResult",
      "value": "(0xBEe724E626Df69a20573CeE9522b7140CC9fE9C5, 0x77570265C0230F1eBD933633545592321038eE31, 0xc4F1d1677Df10daEE3a6aFe8965B02c22566Dbc2, 80002, polygon-sepolia)"
    }
  },
  "timestamp": 1762386576230,
  "chain": 80002,
  "commit": "1f65253"
}
